{
  "contractName": "BokkyPooBahsDateTimeLibrary",
  "abi": [
    {
      "inputs": [
        {
          "internalType": "uint256",
          "name": "year",
          "type": "uint256"
        },
        {
          "internalType": "uint256",
          "name": "month",
          "type": "uint256"
        },
        {
          "internalType": "uint256",
          "name": "day",
          "type": "uint256"
        }
      ],
      "name": "_daysFromDate",
      "outputs": [
        {
          "internalType": "uint256",
          "name": "_days",
          "type": "uint256"
        }
      ],
      "stateMutability": "pure",
      "type": "function"
    },
    {
      "inputs": [
        {
          "internalType": "uint256",
          "name": "_days",
          "type": "uint256"
        }
      ],
      "name": "_daysToDate",
      "outputs": [
        {
          "internalType": "uint256",
          "name": "year",
          "type": "uint256"
        },
        {
          "internalType": "uint256",
          "name": "month",
          "type": "uint256"
        },
        {
          "internalType": "uint256",
          "name": "day",
          "type": "uint256"
        }
      ],
      "stateMutability": "pure",
      "type": "function"
    },
    {
      "inputs": [
        {
          "internalType": "uint256",
          "name": "year",
          "type": "uint256"
        },
        {
          "internalType": "uint256",
          "name": "month",
          "type": "uint256"
        },
        {
          "internalType": "uint256",
          "name": "day",
          "type": "uint256"
        }
      ],
      "name": "timestampFromDate",
      "outputs": [
        {
          "internalType": "uint256",
          "name": "timestamp",
          "type": "uint256"
        }
      ],
      "stateMutability": "pure",
      "type": "function"
    },
    {
      "inputs": [
        {
          "internalType": "uint256",
          "name": "year",
          "type": "uint256"
        },
        {
          "internalType": "uint256",
          "name": "month",
          "type": "uint256"
        },
        {
          "internalType": "uint256",
          "name": "day",
          "type": "uint256"
        },
        {
          "internalType": "uint256",
          "name": "hour",
          "type": "uint256"
        },
        {
          "internalType": "uint256",
          "name": "minute",
          "type": "uint256"
        },
        {
          "internalType": "uint256",
          "name": "second",
          "type": "uint256"
        }
      ],
      "name": "timestampFromDateTime",
      "outputs": [
        {
          "internalType": "uint256",
          "name": "timestamp",
          "type": "uint256"
        }
      ],
      "stateMutability": "pure",
      "type": "function"
    },
    {
      "inputs": [
        {
          "internalType": "uint256",
          "name": "timestamp",
          "type": "uint256"
        }
      ],
      "name": "timestampToDate",
      "outputs": [
        {
          "internalType": "uint256",
          "name": "year",
          "type": "uint256"
        },
        {
          "internalType": "uint256",
          "name": "month",
          "type": "uint256"
        },
        {
          "internalType": "uint256",
          "name": "day",
          "type": "uint256"
        }
      ],
      "stateMutability": "pure",
      "type": "function"
    },
    {
      "inputs": [
        {
          "internalType": "uint256",
          "name": "timestamp",
          "type": "uint256"
        }
      ],
      "name": "timestampToDateTime",
      "outputs": [
        {
          "internalType": "uint256",
          "name": "year",
          "type": "uint256"
        },
        {
          "internalType": "uint256",
          "name": "month",
          "type": "uint256"
        },
        {
          "internalType": "uint256",
          "name": "day",
          "type": "uint256"
        },
        {
          "internalType": "uint256",
          "name": "hour",
          "type": "uint256"
        },
        {
          "internalType": "uint256",
          "name": "minute",
          "type": "uint256"
        },
        {
          "internalType": "uint256",
          "name": "second",
          "type": "uint256"
        }
      ],
      "stateMutability": "pure",
      "type": "function"
    },
    {
      "inputs": [
        {
          "internalType": "uint256",
          "name": "year",
          "type": "uint256"
        },
        {
          "internalType": "uint256",
          "name": "month",
          "type": "uint256"
        },
        {
          "internalType": "uint256",
          "name": "day",
          "type": "uint256"
        }
      ],
      "name": "isValidDate",
      "outputs": [
        {
          "internalType": "bool",
          "name": "valid",
          "type": "bool"
        }
      ],
      "stateMutability": "pure",
      "type": "function"
    },
    {
      "inputs": [
        {
          "internalType": "uint256",
          "name": "year",
          "type": "uint256"
        },
        {
          "internalType": "uint256",
          "name": "month",
          "type": "uint256"
        },
        {
          "internalType": "uint256",
          "name": "day",
          "type": "uint256"
        },
        {
          "internalType": "uint256",
          "name": "hour",
          "type": "uint256"
        },
        {
          "internalType": "uint256",
          "name": "minute",
          "type": "uint256"
        },
        {
          "internalType": "uint256",
          "name": "second",
          "type": "uint256"
        }
      ],
      "name": "isValidDateTime",
      "outputs": [
        {
          "internalType": "bool",
          "name": "valid",
          "type": "bool"
        }
      ],
      "stateMutability": "pure",
      "type": "function"
    },
    {
      "inputs": [
        {
          "internalType": "uint256",
          "name": "timestamp",
          "type": "uint256"
        }
      ],
      "name": "isLeapYear",
      "outputs": [
        {
          "internalType": "bool",
          "name": "leapYear",
          "type": "bool"
        }
      ],
      "stateMutability": "pure",
      "type": "function"
    },
    {
      "inputs": [
        {
          "internalType": "uint256",
          "name": "year",
          "type": "uint256"
        }
      ],
      "name": "_isLeapYear",
      "outputs": [
        {
          "internalType": "bool",
          "name": "leapYear",
          "type": "bool"
        }
      ],
      "stateMutability": "pure",
      "type": "function"
    },
    {
      "inputs": [
        {
          "internalType": "uint256",
          "name": "timestamp",
          "type": "uint256"
        }
      ],
      "name": "isWeekDay",
      "outputs": [
        {
          "internalType": "bool",
          "name": "weekDay",
          "type": "bool"
        }
      ],
      "stateMutability": "pure",
      "type": "function"
    },
    {
      "inputs": [
        {
          "internalType": "uint256",
          "name": "timestamp",
          "type": "uint256"
        }
      ],
      "name": "isWeekEnd",
      "outputs": [
        {
          "internalType": "bool",
          "name": "weekEnd",
          "type": "bool"
        }
      ],
      "stateMutability": "pure",
      "type": "function"
    },
    {
      "inputs": [
        {
          "internalType": "uint256",
          "name": "timestamp",
          "type": "uint256"
        }
      ],
      "name": "getDaysInMonth",
      "outputs": [
        {
          "internalType": "uint256",
          "name": "daysInMonth",
          "type": "uint256"
        }
      ],
      "stateMutability": "pure",
      "type": "function"
    },
    {
      "inputs": [
        {
          "internalType": "uint256",
          "name": "year",
          "type": "uint256"
        },
        {
          "internalType": "uint256",
          "name": "month",
          "type": "uint256"
        }
      ],
      "name": "_getDaysInMonth",
      "outputs": [
        {
          "internalType": "uint256",
          "name": "daysInMonth",
          "type": "uint256"
        }
      ],
      "stateMutability": "pure",
      "type": "function"
    },
    {
      "inputs": [
        {
          "internalType": "uint256",
          "name": "timestamp",
          "type": "uint256"
        }
      ],
      "name": "getDayOfWeek",
      "outputs": [
        {
          "internalType": "uint256",
          "name": "dayOfWeek",
          "type": "uint256"
        }
      ],
      "stateMutability": "pure",
      "type": "function"
    },
    {
      "inputs": [
        {
          "internalType": "uint256",
          "name": "timestamp",
          "type": "uint256"
        }
      ],
      "name": "getYear",
      "outputs": [
        {
          "internalType": "uint256",
          "name": "year",
          "type": "uint256"
        }
      ],
      "stateMutability": "pure",
      "type": "function"
    },
    {
      "inputs": [
        {
          "internalType": "uint256",
          "name": "timestamp",
          "type": "uint256"
        }
      ],
      "name": "getMonth",
      "outputs": [
        {
          "internalType": "uint256",
          "name": "month",
          "type": "uint256"
        }
      ],
      "stateMutability": "pure",
      "type": "function"
    },
    {
      "inputs": [
        {
          "internalType": "uint256",
          "name": "timestamp",
          "type": "uint256"
        }
      ],
      "name": "getDay",
      "outputs": [
        {
          "internalType": "uint256",
          "name": "day",
          "type": "uint256"
        }
      ],
      "stateMutability": "pure",
      "type": "function"
    },
    {
      "inputs": [
        {
          "internalType": "uint256",
          "name": "timestamp",
          "type": "uint256"
        }
      ],
      "name": "getHour",
      "outputs": [
        {
          "internalType": "uint256",
          "name": "hour",
          "type": "uint256"
        }
      ],
      "stateMutability": "pure",
      "type": "function"
    },
    {
      "inputs": [
        {
          "internalType": "uint256",
          "name": "timestamp",
          "type": "uint256"
        }
      ],
      "name": "getMinute",
      "outputs": [
        {
          "internalType": "uint256",
          "name": "minute",
          "type": "uint256"
        }
      ],
      "stateMutability": "pure",
      "type": "function"
    },
    {
      "inputs": [
        {
          "internalType": "uint256",
          "name": "timestamp",
          "type": "uint256"
        }
      ],
      "name": "getSecond",
      "outputs": [
        {
          "internalType": "uint256",
          "name": "second",
          "type": "uint256"
        }
      ],
      "stateMutability": "pure",
      "type": "function"
    },
    {
      "inputs": [
        {
          "internalType": "uint256",
          "name": "timestamp",
          "type": "uint256"
        },
        {
          "internalType": "uint256",
          "name": "_years",
          "type": "uint256"
        }
      ],
      "name": "addYears",
      "outputs": [
        {
          "internalType": "uint256",
          "name": "newTimestamp",
          "type": "uint256"
        }
      ],
      "stateMutability": "pure",
      "type": "function"
    },
    {
      "inputs": [
        {
          "internalType": "uint256",
          "name": "timestamp",
          "type": "uint256"
        },
        {
          "internalType": "uint256",
          "name": "_months",
          "type": "uint256"
        }
      ],
      "name": "addMonths",
      "outputs": [
        {
          "internalType": "uint256",
          "name": "newTimestamp",
          "type": "uint256"
        }
      ],
      "stateMutability": "pure",
      "type": "function"
    },
    {
      "inputs": [
        {
          "internalType": "uint256",
          "name": "timestamp",
          "type": "uint256"
        },
        {
          "internalType": "uint256",
          "name": "_days",
          "type": "uint256"
        }
      ],
      "name": "addDays",
      "outputs": [
        {
          "internalType": "uint256",
          "name": "newTimestamp",
          "type": "uint256"
        }
      ],
      "stateMutability": "pure",
      "type": "function"
    },
    {
      "inputs": [
        {
          "internalType": "uint256",
          "name": "timestamp",
          "type": "uint256"
        },
        {
          "internalType": "uint256",
          "name": "_hours",
          "type": "uint256"
        }
      ],
      "name": "addHours",
      "outputs": [
        {
          "internalType": "uint256",
          "name": "newTimestamp",
          "type": "uint256"
        }
      ],
      "stateMutability": "pure",
      "type": "function"
    },
    {
      "inputs": [
        {
          "internalType": "uint256",
          "name": "timestamp",
          "type": "uint256"
        },
        {
          "internalType": "uint256",
          "name": "_minutes",
          "type": "uint256"
        }
      ],
      "name": "addMinutes",
      "outputs": [
        {
          "internalType": "uint256",
          "name": "newTimestamp",
          "type": "uint256"
        }
      ],
      "stateMutability": "pure",
      "type": "function"
    },
    {
      "inputs": [
        {
          "internalType": "uint256",
          "name": "timestamp",
          "type": "uint256"
        },
        {
          "internalType": "uint256",
          "name": "_seconds",
          "type": "uint256"
        }
      ],
      "name": "addSeconds",
      "outputs": [
        {
          "internalType": "uint256",
          "name": "newTimestamp",
          "type": "uint256"
        }
      ],
      "stateMutability": "pure",
      "type": "function"
    },
    {
      "inputs": [
        {
          "internalType": "uint256",
          "name": "timestamp",
          "type": "uint256"
        },
        {
          "internalType": "uint256",
          "name": "_years",
          "type": "uint256"
        }
      ],
      "name": "subYears",
      "outputs": [
        {
          "internalType": "uint256",
          "name": "newTimestamp",
          "type": "uint256"
        }
      ],
      "stateMutability": "pure",
      "type": "function"
    },
    {
      "inputs": [
        {
          "internalType": "uint256",
          "name": "timestamp",
          "type": "uint256"
        },
        {
          "internalType": "uint256",
          "name": "_months",
          "type": "uint256"
        }
      ],
      "name": "subMonths",
      "outputs": [
        {
          "internalType": "uint256",
          "name": "newTimestamp",
          "type": "uint256"
        }
      ],
      "stateMutability": "pure",
      "type": "function"
    },
    {
      "inputs": [
        {
          "internalType": "uint256",
          "name": "timestamp",
          "type": "uint256"
        },
        {
          "internalType": "uint256",
          "name": "_days",
          "type": "uint256"
        }
      ],
      "name": "subDays",
      "outputs": [
        {
          "internalType": "uint256",
          "name": "newTimestamp",
          "type": "uint256"
        }
      ],
      "stateMutability": "pure",
      "type": "function"
    },
    {
      "inputs": [
        {
          "internalType": "uint256",
          "name": "timestamp",
          "type": "uint256"
        },
        {
          "internalType": "uint256",
          "name": "_hours",
          "type": "uint256"
        }
      ],
      "name": "subHours",
      "outputs": [
        {
          "internalType": "uint256",
          "name": "newTimestamp",
          "type": "uint256"
        }
      ],
      "stateMutability": "pure",
      "type": "function"
    },
    {
      "inputs": [
        {
          "internalType": "uint256",
          "name": "timestamp",
          "type": "uint256"
        },
        {
          "internalType": "uint256",
          "name": "_minutes",
          "type": "uint256"
        }
      ],
      "name": "subMinutes",
      "outputs": [
        {
          "internalType": "uint256",
          "name": "newTimestamp",
          "type": "uint256"
        }
      ],
      "stateMutability": "pure",
      "type": "function"
    },
    {
      "inputs": [
        {
          "internalType": "uint256",
          "name": "timestamp",
          "type": "uint256"
        },
        {
          "internalType": "uint256",
          "name": "_seconds",
          "type": "uint256"
        }
      ],
      "name": "subSeconds",
      "outputs": [
        {
          "internalType": "uint256",
          "name": "newTimestamp",
          "type": "uint256"
        }
      ],
      "stateMutability": "pure",
      "type": "function"
    },
    {
      "inputs": [
        {
          "internalType": "uint256",
          "name": "fromTimestamp",
          "type": "uint256"
        },
        {
          "internalType": "uint256",
          "name": "toTimestamp",
          "type": "uint256"
        }
      ],
      "name": "diffYears",
      "outputs": [
        {
          "internalType": "uint256",
          "name": "_years",
          "type": "uint256"
        }
      ],
      "stateMutability": "pure",
      "type": "function"
    },
    {
      "inputs": [
        {
          "internalType": "uint256",
          "name": "fromTimestamp",
          "type": "uint256"
        },
        {
          "internalType": "uint256",
          "name": "toTimestamp",
          "type": "uint256"
        }
      ],
      "name": "diffMonths",
      "outputs": [
        {
          "internalType": "uint256",
          "name": "_months",
          "type": "uint256"
        }
      ],
      "stateMutability": "pure",
      "type": "function"
    },
    {
      "inputs": [
        {
          "internalType": "uint256",
          "name": "fromTimestamp",
          "type": "uint256"
        },
        {
          "internalType": "uint256",
          "name": "toTimestamp",
          "type": "uint256"
        }
      ],
      "name": "diffDays",
      "outputs": [
        {
          "internalType": "uint256",
          "name": "_days",
          "type": "uint256"
        }
      ],
      "stateMutability": "pure",
      "type": "function"
    },
    {
      "inputs": [
        {
          "internalType": "uint256",
          "name": "fromTimestamp",
          "type": "uint256"
        },
        {
          "internalType": "uint256",
          "name": "toTimestamp",
          "type": "uint256"
        }
      ],
      "name": "diffHours",
      "outputs": [
        {
          "internalType": "uint256",
          "name": "_hours",
          "type": "uint256"
        }
      ],
      "stateMutability": "pure",
      "type": "function"
    },
    {
      "inputs": [
        {
          "internalType": "uint256",
          "name": "fromTimestamp",
          "type": "uint256"
        },
        {
          "internalType": "uint256",
          "name": "toTimestamp",
          "type": "uint256"
        }
      ],
      "name": "diffMinutes",
      "outputs": [
        {
          "internalType": "uint256",
          "name": "_minutes",
          "type": "uint256"
        }
      ],
      "stateMutability": "pure",
      "type": "function"
    },
    {
      "inputs": [
        {
          "internalType": "uint256",
          "name": "fromTimestamp",
          "type": "uint256"
        },
        {
          "internalType": "uint256",
          "name": "toTimestamp",
          "type": "uint256"
        }
      ],
      "name": "diffSeconds",
      "outputs": [
        {
          "internalType": "uint256",
          "name": "_seconds",
          "type": "uint256"
        }
      ],
      "stateMutability": "pure",
      "type": "function"
    }
  ],
  "bytecode": "0x611e62610053600b82828239805160001a607314610046577f4e487b7100000000000000000000000000000000000000000000000000000000600052600060045260246000fd5b30600052607381538281f3fe73000000000000000000000000000000000000000030146080604052600436106102465760003560e01c80637217523c11610145578063b05eb08d116100c2578063de5101af11610086578063de5101af146108ad578063ea1c1690146108df578063f615ed5414610914578063fa93f88314610944578063ff2258cb1461097457610246565b8063b05eb08d146107bd578063b8d16dbc146107ed578063c7b6fd6a1461081d578063c9d346221461084d578063d6582d0d1461087d57610246565b806390059aed1161010957806390059aed146106cb57806392d66313146106fd5780639e524caa1461072d578063a324ad241461075d578063ad203bd41461078d57610246565b80637217523c146105db5780637be341091461060b57806389a3a00d1461063b5780638aa001fc1461066b5780638d4a2d391461069b57610246565b80633e239e1a116101d3578063444fda8211610197578063444fda82146104eb5780634b3215021461051b5780635e05bd6d1461054b57806362fb96971461057b57806365c72840146105ab57610246565b80633e239e1a146103fb5780633f9e0eb71461042b5780634355644d1461045b5780634371c4651461048b578063442b8c79146104bb57610246565b80631e0582e91161021a5780631e0582e91461030b5780631f4f77b21461033b57806322f8a2b81461036b5780632af123b81461039b5780633293d007146103cb57610246565b80625015531461024b57806302e98e0d1461027b57806310848ddf146102ab57806314b2d6dc146102db575b600080fd5b610265600480360381019061026091906117a8565b6109a4565b60405161027291906118f5565b60405180910390f35b610295600480360381019061029091906117a8565b6109d4565b6040516102a291906118f5565b60405180910390f35b6102c560048036038101906102c0919061177f565b610a03565b6040516102d291906118f5565b60405180910390f35b6102f560048036038101906102f091906117e4565b610a40565b60405161030291906118da565b60405180910390f35b610325600480360381019061032091906117e4565b610a97565b60405161033291906118f5565b60405180910390f35b610355600480360381019061035091906117e4565b610bf6565b60405161036291906118f5565b60405180910390f35b6103856004803603810190610380919061177f565b610c1a565b60405161039291906118f5565b60405180910390f35b6103b560048036038101906103b091906117a8565b610c5b565b6040516103c291906118f5565b60405180910390f35b6103e560048036038101906103e09190611833565b610c8b565b6040516103f291906118da565b60405180910390f35b6104156004803603810190610410919061177f565b610cce565b60405161042291906118f5565b60405180910390f35b610445600480360381019061044091906117a8565b610cf8565b60405161045291906118f5565b60405180910390f35b610475600480360381019061047091906117a8565b610d83565b60405161048291906118f5565b60405180910390f35b6104a560048036038101906104a0919061177f565b610e6c565b6040516104b291906118da565b60405180910390f35b6104d560048036038101906104d091906117a8565b610e82565b6040516104e291906118f5565b60405180910390f35b610505600480360381019061050091906117a8565b610f1e565b60405161051291906118f5565b60405180910390f35b610535600480360381019061053091906117a8565b610fba565b60405161054291906118f5565b60405180910390f35b61056560048036038101906105609190611833565b610fea565b60405161057291906118f5565b60405180910390f35b610595600480360381019061059091906117a8565b61104b565b6040516105a291906118f5565b60405180910390f35b6105c560048036038101906105c0919061177f565b61106e565b6040516105d291906118f5565b60405180910390f35b6105f560048036038101906105f091906117a8565b61109d565b60405161060291906118f5565b60405180910390f35b610625600480360381019061062091906117a8565b6110ce565b60405161063291906118f5565b60405180910390f35b610655600480360381019061065091906117a8565b611174565b60405161066291906118f5565b60405180910390f35b6106856004803603810190610680919061177f565b6111a3565b60405161069291906118f5565b60405180910390f35b6106b560048036038101906106b091906117a8565b6111b9565b6040516106c291906118f5565b60405180910390f35b6106e560048036038101906106e0919061177f565b6111dc565b6040516106f493929190611910565b60405180910390f35b6107176004803603810190610712919061177f565b61137b565b60405161072491906118f5565b60405180910390f35b610747600480360381019061074291906117a8565b6113aa565b60405161075491906118f5565b60405180910390f35b6107776004803603810190610772919061177f565b6113d9565b60405161078491906118f5565b60405180910390f35b6107a760048036038101906107a291906117a8565b611408565b6040516107b491906118f5565b60405180910390f35b6107d760048036038101906107d2919061177f565b6114f4565b6040516107e491906118da565b60405180910390f35b6108076004803603810190610802919061177f565b61153d565b60405161081491906118da565b60405180910390f35b610837600480360381019061083291906117a8565b611579565b60405161084491906118f5565b60405180910390f35b610867600480360381019061086291906117a8565b6115aa565b60405161087491906118f5565b60405180910390f35b6108976004803603810190610892919061177f565b6115db565b6040516108a491906118da565b60405180910390f35b6108c760048036038101906108c2919061177f565b6115f1565b6040516108d693929190611910565b60405180910390f35b6108f960048036038101906108f4919061177f565b611620565b60405161090b96959493929190611947565b60405180910390f35b61092e600480360381019061092991906117a8565b6116a7565b60405161093b91906118f5565b60405180910390f35b61095e6004803603810190610959919061177f565b6116ca565b60405161096b91906118f5565b60405180910390f35b61098e600480360381019061098991906117a8565b6116f2565b60405161099b91906118f5565b60405180910390f35b6000610e10826109b49190611c44565b836109bf9190611d32565b9050828111156109ce57600080fd5b92915050565b6000818311156109e357600080fd5b603c83836109f19190611d32565b6109fb9190611afc565b905092915050565b600080600080610a206201518086610a1b9190611afc565b6111dc565b809350819450829550505050610a368383610cf8565b9350505050919050565b60006107b28410158015610a545750600083115b8015610a615750600c8311155b15610a90576000610a728585610cf8565b9050600083118015610a845750808311155b15610a8e57600191505b505b9392505050565b60006107b2841015610aa857600080fd5b600084905060008490506000849050600062253d8c60046064600c600e87610ad09190611c9e565b610ada9190611a92565b61132488610ae891906119a8565b610af291906119a8565b610afc9190611a92565b6003610b089190611b2d565b610b129190611a92565b600c80600c600e88610b249190611c9e565b610b2e9190611a92565b610b389190611b2d565b600287610b459190611c9e565b610b4f9190611c9e565b61016f610b5c9190611b2d565b610b669190611a92565b6004600c600e88610b779190611c9e565b610b819190611a92565b6112c089610b8f91906119a8565b610b9991906119a8565b6105b5610ba69190611b2d565b610bb09190611a92565b617d4b86610bbe9190611c9e565b610bc891906119a8565b610bd291906119a8565b610bdc9190611c9e565b610be69190611c9e565b9050809450505050509392505050565b600062015180610c07858585610a97565b610c119190611c44565b90509392505050565b6000806201518083610c2c9190611afc565b905060016007600383610c3f9190611a3c565b610c499190611d86565b610c539190611a3c565b915050919050565b600081831115610c6a57600080fd5b610e108383610c799190611d32565b610c839190611afc565b905092915050565b6000610c98878787610a40565b15610cc457601884108015610cad5750603c83105b8015610cb95750603c82105b15610cc357600190505b5b9695505050505050565b6000806201518083610ce09190611d86565b9050610e1081610cf09190611afc565b915050919050565b60006001821480610d095750600382145b80610d145750600582145b80610d1f5750600782145b80610d2a5750600882145b80610d355750600a82145b80610d405750600c82145b15610d4e57601f9050610d7d565b60028214610d5f57601e9050610d7c565b610d68836114f4565b610d7357601c610d76565b601d5b60ff1690505b5b92915050565b600080600080610da06201518087610d9b9190611afc565b6111dc565b8093508194508295505050508482610db89190611a3c565b9150600c600183610dc99190611d32565b610dd39190611afc565b83610dde9190611a3c565b92506001600c600184610df19190611d32565b610dfb9190611d86565b610e059190611a3c565b91506000610e138484610cf8565b905080821115610e21578091505b6201518087610e309190611d86565b62015180610e3f868686610a97565b610e499190611c44565b610e539190611a3c565b945086851015610e6257600080fd5b5050505092915050565b60006006610e7983610c1a565b10159050919050565b600080600080610e9f6201518087610e9a9190611afc565b6111dc565b8093508194508295505050508483610eb79190611a3c565b92506000610ec58484610cf8565b905080821115610ed3578091505b6201518087610ee29190611d86565b62015180610ef1868686610a97565b610efb9190611c44565b610f059190611a3c565b945086851015610f1457600080fd5b5050505092915050565b600080600080610f3b6201518087610f369190611afc565b6111dc565b8093508194508295505050508483610f539190611d32565b92506000610f618484610cf8565b905080821115610f6f578091505b6201518087610f7e9190611d86565b62015180610f8d868686610a97565b610f979190611c44565b610fa19190611a3c565b945086851115610fb057600080fd5b5050505092915050565b6000610e1082610fca9190611c44565b83610fd59190611a3c565b905082811015610fe457600080fd5b92915050565b600081603c84610ffa9190611c44565b610e10866110089190611c44565b620151806110178b8b8b610a97565b6110219190611c44565b61102b9190611a3c565b6110359190611a3c565b61103f9190611a3c565b90509695505050505050565b60008183111561105a57600080fd5b82826110669190611d32565b905092915050565b600080600061108a62015180856110859190611afc565b6111dc565b8095508193508294505050505050919050565b600062015180826110ae9190611c44565b836110b99190611a3c565b9050828110156110c857600080fd5b92915050565b6000818311156110dd57600080fd5b6000806000806000806110fd620151808a6110f89190611afc565b6111dc565b809650819750829850505050611120620151808961111b9190611afc565b6111dc565b80935081945082955050505084600c8761113a9190611c44565b83600c866111489190611c44565b6111529190611a3c565b61115c9190611d32565b6111669190611d32565b965050505050505092915050565b6000603c826111839190611c44565b8361118e9190611a3c565b90508281101561119d57600080fd5b92915050565b6000603c826111b29190611d86565b9050919050565b600081836111c79190611a3c565b9050828110156111d657600080fd5b92915050565b600080600080849050600062253d8c62010bd9836111fa91906119a8565b61120491906119a8565b9050600062023ab18260046112199190611b2d565b6112239190611a92565b9050600460038262023ab16112389190611b2d565b61124291906119a8565b61124c9190611a92565b826112579190611c9e565b9150600062164b0960018461126c91906119a8565b610fa06112799190611b2d565b6112839190611a92565b9050601f6004826105b56112979190611b2d565b6112a19190611a92565b846112ac9190611c9e565b6112b691906119a8565b9250600061098f8460506112ca9190611b2d565b6112d49190611a92565b9050600060508261098f6112e89190611b2d565b6112f29190611a92565b856112fd9190611c9e565b9050600b8261130c9190611a92565b945084600c61131b9190611b2d565b60028361132891906119a8565b6113329190611c9e565b915084836031866113439190611c9e565b606461134f9190611b2d565b61135991906119a8565b61136391906119a8565b92508298508197508096505050505050509193909250565b600080600061139762015180856113929190611afc565b6111dc565b8093508194508295505050505050919050565b6000603c826113b99190611c44565b836113c49190611d32565b9050828111156113d357600080fd5b92915050565b60008060006113f562015180856113f09190611afc565b6111dc565b8093508195508294505050505050919050565b60008060008061142562015180876114209190611afc565b6111dc565b8093508194508295505050506000856001846114419190611d32565b600c8661144e9190611c44565b6114589190611a3c565b6114629190611d32565b9050600c816114719190611afc565b93506001600c826114829190611d86565b61148c9190611a3c565b9250600061149a8585610cf8565b9050808311156114a8578092505b62015180886114b79190611d86565b620151806114c6878787610a97565b6114d09190611c44565b6114da9190611a3c565b9550878611156114e957600080fd5b505050505092915050565b6000806004836115049190611d86565b14801561151e5750600060648361151b9190611d86565b14155b8061153657506000610190836115349190611d86565b145b9050919050565b60008060008061155a62015180866115559190611afc565b6111dc565b80935081945082955050505061156f836114f4565b9350505050919050565b6000620151808261158a9190611c44565b836115959190611d32565b9050828111156115a457600080fd5b92915050565b6000818311156115b957600080fd5b6201518083836115c99190611d32565b6115d39190611afc565b905092915050565b600060056115e883610c1a565b11159050919050565b600080600061160d62015180856116089190611afc565b6111dc565b8093508194508295505050509193909250565b600080600080600080611640620151808861163b9190611afc565b6111dc565b8096508197508298505050506000620151808861165d9190611d86565b9050610e108161166d9190611afc565b9350610e108161167d9190611d86565b9050603c8161168c9190611afc565b9250603c8161169b9190611d86565b91505091939550919395565b600081836116b59190611d32565b9050828111156116c457600080fd5b92915050565b600080610e10836116db9190611d86565b9050603c816116ea9190611afc565b915050919050565b60008183111561170157600080fd5b600080600080600080611721620151808a61171c9190611afc565b6111dc565b809650819750829850505050611744620151808961173f9190611afc565b6111dc565b809350819450829550505050858361175c9190611d32565b965050505050505092915050565b60008135905061177981611e15565b92915050565b60006020828403121561179157600080fd5b600061179f8482850161176a565b91505092915050565b600080604083850312156117bb57600080fd5b60006117c98582860161176a565b92505060206117da8582860161176a565b9150509250929050565b6000806000606084860312156117f957600080fd5b60006118078682870161176a565b93505060206118188682870161176a565b92505060406118298682870161176a565b9150509250925092565b60008060008060008060c0878903121561184c57600080fd5b600061185a89828a0161176a565b965050602061186b89828a0161176a565b955050604061187c89828a0161176a565b945050606061188d89828a0161176a565b935050608061189e89828a0161176a565b92505060a06118af89828a0161176a565b9150509295509295509295565b6118c581611d66565b82525050565b6118d481611d7c565b82525050565b60006020820190506118ef60008301846118bc565b92915050565b600060208201905061190a60008301846118cb565b92915050565b600060608201905061192560008301866118cb565b61193260208301856118cb565b61193f60408301846118cb565b949350505050565b600060c08201905061195c60008301896118cb565b61196960208301886118cb565b61197660408301876118cb565b61198360608301866118cb565b61199060808301856118cb565b61199d60a08301846118cb565b979650505050505050565b60006119b382611d72565b91506119be83611d72565b9250817f7fffffffffffffffffffffffffffffffffffffffffffffffffffffffffffffff038313600083121516156119f9576119f8611db7565b5b817f8000000000000000000000000000000000000000000000000000000000000000038312600083121615611a3157611a30611db7565b5b828201905092915050565b6000611a4782611d7c565b9150611a5283611d7c565b9250827fffffffffffffffffffffffffffffffffffffffffffffffffffffffffffffffff03821115611a8757611a86611db7565b5b828201905092915050565b6000611a9d82611d72565b9150611aa883611d72565b925082611ab857611ab7611de6565b5b600160000383147f800000000000000000000000000000000000000000000000000000000000000083141615611af157611af0611db7565b5b828205905092915050565b6000611b0782611d7c565b9150611b1283611d7c565b925082611b2257611b21611de6565b5b828204905092915050565b6000611b3882611d72565b9150611b4383611d72565b9250827f7fffffffffffffffffffffffffffffffffffffffffffffffffffffffffffffff0482116000841360008413161615611b8257611b81611db7565b5b817f80000000000000000000000000000000000000000000000000000000000000000583126000841260008413161615611bbf57611bbe611db7565b5b827f80000000000000000000000000000000000000000000000000000000000000000582126000841360008412161615611bfc57611bfb611db7565b5b827f7fffffffffffffffffffffffffffffffffffffffffffffffffffffffffffffff0582126000841260008412161615611c3957611c38611db7565b5b828202905092915050565b6000611c4f82611d7c565b9150611c5a83611d7c565b9250817fffffffffffffffffffffffffffffffffffffffffffffffffffffffffffffffff0483118215151615611c9357611c92611db7565b5b828202905092915050565b6000611ca982611d72565b9150611cb483611d72565b9250827f800000000000000000000000000000000000000000000000000000000000000001821260008412151615611cef57611cee611db7565b5b827f7fffffffffffffffffffffffffffffffffffffffffffffffffffffffffffffff018213600084121615611d2757611d26611db7565b5b828203905092915050565b6000611d3d82611d7c565b9150611d4883611d7c565b925082821015611d5b57611d5a611db7565b5b828203905092915050565b60008115159050919050565b6000819050919050565b6000819050919050565b6000611d9182611d7c565b9150611d9c83611d7c565b925082611dac57611dab611de6565b5b828206905092915050565b7f4e487b7100000000000000000000000000000000000000000000000000000000600052601160045260246000fd5b7f4e487b7100000000000000000000000000000000000000000000000000000000600052601260045260246000fd5b611e1e81611d7c565b8114611e2957600080fd5b5056fea2646970667358221220c6669a4cbcf9f730fdf842efeb9d4db2f10ccd0b5c27d9f813d4d44ddffb415a64736f6c63430008020033",
  "immutableReferences": {},
  "source": "pragma solidity >=0.4.24;\r\n\r\n// ----------------------------------------------------------------------------\r\n// BokkyPooBah's DateTime Library v1.00\r\n//\r\n// A gas-efficient Solidity date and time library\r\n//\r\n// https://github.com/bokkypoobah/BokkyPooBahsDateTimeLibrary\r\n//\r\n// Tested date range 1970/01/01 to 2345/12/31\r\n//\r\n// Conventions:\r\n// Unit      | Range         | Notes\r\n// :-------- |:-------------:|:-----\r\n// timestamp | >= 0          | Unix timestamp, number of seconds since 1970/01/01 00:00:00 UTC\r\n// year      | 1970 ... 2345 |\r\n// month     | 1 ... 12      |\r\n// day       | 1 ... 31      |\r\n// hour      | 0 ... 23      |\r\n// minute    | 0 ... 59      |\r\n// second    | 0 ... 59      |\r\n// dayOfWeek | 1 ... 7       | 1 = Monday, ..., 7 = Sunday\r\n//\r\n//\r\n// Enjoy. (c) BokkyPooBah / Bok Consulting Pty Ltd 2018.\r\n//\r\n// GNU Lesser General Public License 3.0\r\n// https://www.gnu.org/licenses/lgpl-3.0.en.html\r\n// ----------------------------------------------------------------------------\r\n\r\nlibrary BokkyPooBahsDateTimeLibrary {\r\n\r\n    uint constant SECONDS_PER_DAY = 24 * 60 * 60;\r\n    uint constant SECONDS_PER_HOUR = 60 * 60;\r\n    uint constant SECONDS_PER_MINUTE = 60;\r\n    int constant OFFSET19700101 = 2440588;\r\n\r\n    uint constant DOW_MON = 1;\r\n    uint constant DOW_TUE = 2;\r\n    uint constant DOW_WED = 3;\r\n    uint constant DOW_THU = 4;\r\n    uint constant DOW_FRI = 5;\r\n    uint constant DOW_SAT = 6;\r\n    uint constant DOW_SUN = 7;\r\n\r\n    // ------------------------------------------------------------------------\r\n    // Calculate the number of days from 1970/01/01 to year/month/day using\r\n    // the date conversion algorithm from\r\n    //   http://aa.usno.navy.mil/faq/docs/JD_Formula.php\r\n    // and subtracting the offset 2440588 so that 1970/01/01 is day 0\r\n    //\r\n    // days = day\r\n    //      - 32075\r\n    //      + 1461 * (year + 4800 + (month - 14) / 12) / 4\r\n    //      + 367 * (month - 2 - (month - 14) / 12 * 12) / 12\r\n    //      - 3 * ((year + 4900 + (month - 14) / 12) / 100) / 4\r\n    //      - offset\r\n    // ------------------------------------------------------------------------\r\n    function _daysFromDate(uint year, uint month, uint day) public pure returns (uint _days) {\r\n        require(year >= 1970);\r\n        int _year = int(year);\r\n        int _month = int(month);\r\n        int _day = int(day);\r\n\r\n        int __days = _day\r\n          - 32075\r\n          + 1461 * (_year + 4800 + (_month - 14) / 12) / 4\r\n          + 367 * (_month - 2 - (_month - 14) / 12 * 12) / 12\r\n          - 3 * ((_year + 4900 + (_month - 14) / 12) / 100) / 4\r\n          - OFFSET19700101;\r\n\r\n        _days = uint(__days);\r\n    }\r\n\r\n    // ------------------------------------------------------------------------\r\n    // Calculate year/month/day from the number of days since 1970/01/01 using\r\n    // the date conversion algorithm from\r\n    //   http://aa.usno.navy.mil/faq/docs/JD_Formula.php\r\n    // and adding the offset 2440588 so that 1970/01/01 is day 0\r\n    //\r\n    // int L = days + 68569 + offset\r\n    // int N = 4 * L / 146097\r\n    // L = L - (146097 * N + 3) / 4\r\n    // year = 4000 * (L + 1) / 1461001\r\n    // L = L - 1461 * year / 4 + 31\r\n    // month = 80 * L / 2447\r\n    // dd = L - 2447 * month / 80\r\n    // L = month / 11\r\n    // month = month + 2 - 12 * L\r\n    // year = 100 * (N - 49) + year + L\r\n    // ------------------------------------------------------------------------\r\n    function _daysToDate(uint _days) public pure returns (uint year, uint month, uint day) {\r\n        int __days = int(_days);\r\n\r\n        int L = __days + 68569 + OFFSET19700101;\r\n        int N = 4 * L / 146097;\r\n        L = L - (146097 * N + 3) / 4;\r\n        int _year = 4000 * (L + 1) / 1461001;\r\n        L = L - 1461 * _year / 4 + 31;\r\n        int _month = 80 * L / 2447;\r\n        int _day = L - 2447 * _month / 80;\r\n        L = _month / 11;\r\n        _month = _month + 2 - 12 * L;\r\n        _year = 100 * (N - 49) + _year + L;\r\n\r\n        year = uint(_year);\r\n        month = uint(_month);\r\n        day = uint(_day);\r\n    }\r\n\r\n    function timestampFromDate(uint year, uint month, uint day) public pure returns (uint timestamp) {\r\n        timestamp = _daysFromDate(year, month, day) * SECONDS_PER_DAY;\r\n    }\r\n    function timestampFromDateTime(uint year, uint month, uint day, uint hour, uint minute, uint second) public pure returns (uint timestamp) {\r\n        timestamp = _daysFromDate(year, month, day) * SECONDS_PER_DAY + hour * SECONDS_PER_HOUR + minute * SECONDS_PER_MINUTE + second;\r\n    }\r\n    function timestampToDate(uint timestamp) public pure returns (uint year, uint month, uint day) {\r\n        (year, month, day) = _daysToDate(timestamp / SECONDS_PER_DAY);\r\n    }\r\n    function timestampToDateTime(uint timestamp) public pure returns (uint year, uint month, uint day, uint hour, uint minute, uint second) {\r\n        (year, month, day) = _daysToDate(timestamp / SECONDS_PER_DAY);\r\n        uint secs = timestamp % SECONDS_PER_DAY;\r\n        hour = secs / SECONDS_PER_HOUR;\r\n        secs = secs % SECONDS_PER_HOUR;\r\n        minute = secs / SECONDS_PER_MINUTE;\r\n        second = secs % SECONDS_PER_MINUTE;\r\n    }\r\n\r\n    function isValidDate(uint year, uint month, uint day) public pure returns (bool valid) {\r\n        if (year >= 1970 && month > 0 && month <= 12) {\r\n            uint daysInMonth = _getDaysInMonth(year, month);\r\n            if (day > 0 && day <= daysInMonth) {\r\n                valid = true;\r\n            }\r\n        }\r\n    }\r\n    function isValidDateTime(uint year, uint month, uint day, uint hour, uint minute, uint second) public pure returns (bool valid) {\r\n        if (isValidDate(year, month, day)) {\r\n            if (hour < 24 && minute < 60 && second < 60) {\r\n                valid = true;\r\n            }\r\n        }\r\n    }\r\n    function isLeapYear(uint timestamp) public pure returns (bool leapYear) {\r\n        uint year;\r\n        uint month;\r\n        uint day;\r\n        (year, month, day) = _daysToDate(timestamp / SECONDS_PER_DAY);\r\n        leapYear = _isLeapYear(year);\r\n    }\r\n    function _isLeapYear(uint year) public pure returns (bool leapYear) {\r\n        leapYear = ((year % 4 == 0) && (year % 100 != 0)) || (year % 400 == 0);\r\n    }\r\n    function isWeekDay(uint timestamp) public pure returns (bool weekDay) {\r\n        weekDay = getDayOfWeek(timestamp) <= DOW_FRI;\r\n    }\r\n    function isWeekEnd(uint timestamp) public pure returns (bool weekEnd) {\r\n        weekEnd = getDayOfWeek(timestamp) >= DOW_SAT;\r\n    }\r\n    function getDaysInMonth(uint timestamp) public pure returns (uint daysInMonth) {\r\n        uint year;\r\n        uint month;\r\n        uint day;\r\n        (year, month, day) = _daysToDate(timestamp / SECONDS_PER_DAY);\r\n        daysInMonth = _getDaysInMonth(year, month);\r\n    }\r\n    function _getDaysInMonth(uint year, uint month) public pure returns (uint daysInMonth) {\r\n        if (month == 1 || month == 3 || month == 5 || month == 7 || month == 8 || month == 10 || month == 12) {\r\n            daysInMonth = 31;\r\n        } else if (month != 2) {\r\n            daysInMonth = 30;\r\n        } else {\r\n            daysInMonth = _isLeapYear(year) ? 29 : 28;\r\n        }\r\n    }\r\n    // 1 = Monday, 7 = Sunday\r\n    function getDayOfWeek(uint timestamp) public pure returns (uint dayOfWeek) {\r\n        uint _days = timestamp / SECONDS_PER_DAY;\r\n        dayOfWeek = (_days + 3) % 7 + 1;\r\n    }\r\n\r\n    function getYear(uint timestamp) public pure returns (uint year) {\r\n        uint month;\r\n        uint day;\r\n        (year, month, day) = _daysToDate(timestamp / SECONDS_PER_DAY);\r\n    }\r\n    function getMonth(uint timestamp) public pure returns (uint month) {\r\n        uint year;\r\n        uint day;\r\n        (year, month, day) = _daysToDate(timestamp / SECONDS_PER_DAY);\r\n    }\r\n    function getDay(uint timestamp) public pure returns (uint day) {\r\n        uint year;\r\n        uint month;\r\n        (year, month, day) = _daysToDate(timestamp / SECONDS_PER_DAY);\r\n    }\r\n    function getHour(uint timestamp) public pure returns (uint hour) {\r\n        uint secs = timestamp % SECONDS_PER_DAY;\r\n        hour = secs / SECONDS_PER_HOUR;\r\n    }\r\n    function getMinute(uint timestamp) public pure returns (uint minute) {\r\n        uint secs = timestamp % SECONDS_PER_HOUR;\r\n        minute = secs / SECONDS_PER_MINUTE;\r\n    }\r\n    function getSecond(uint timestamp) public pure returns (uint second) {\r\n        second = timestamp % SECONDS_PER_MINUTE;\r\n    }\r\n\r\n    function addYears(uint timestamp, uint _years) public pure returns (uint newTimestamp) {\r\n        uint year;\r\n        uint month;\r\n        uint day;\r\n        (year, month, day) = _daysToDate(timestamp / SECONDS_PER_DAY);\r\n        year += _years;\r\n        uint daysInMonth = _getDaysInMonth(year, month);\r\n        if (day > daysInMonth) {\r\n            day = daysInMonth;\r\n        }\r\n        newTimestamp = _daysFromDate(year, month, day) * SECONDS_PER_DAY + timestamp % SECONDS_PER_DAY;\r\n        require(newTimestamp >= timestamp);\r\n    }\r\n    function addMonths(uint timestamp, uint _months) public pure returns (uint newTimestamp) {\r\n        uint year;\r\n        uint month;\r\n        uint day;\r\n        (year, month, day) = _daysToDate(timestamp / SECONDS_PER_DAY);\r\n        month += _months;\r\n        year += (month - 1) / 12;\r\n        month = (month - 1) % 12 + 1;\r\n        uint daysInMonth = _getDaysInMonth(year, month);\r\n        if (day > daysInMonth) {\r\n            day = daysInMonth;\r\n        }\r\n        newTimestamp = _daysFromDate(year, month, day) * SECONDS_PER_DAY + timestamp % SECONDS_PER_DAY;\r\n        require(newTimestamp >= timestamp);\r\n    }\r\n    function addDays(uint timestamp, uint _days) public pure returns (uint newTimestamp) {\r\n        newTimestamp = timestamp + _days * SECONDS_PER_DAY;\r\n        require(newTimestamp >= timestamp);\r\n    }\r\n    function addHours(uint timestamp, uint _hours) public pure returns (uint newTimestamp) {\r\n        newTimestamp = timestamp + _hours * SECONDS_PER_HOUR;\r\n        require(newTimestamp >= timestamp);\r\n    }\r\n    function addMinutes(uint timestamp, uint _minutes) public pure returns (uint newTimestamp) {\r\n        newTimestamp = timestamp + _minutes * SECONDS_PER_MINUTE;\r\n        require(newTimestamp >= timestamp);\r\n    }\r\n    function addSeconds(uint timestamp, uint _seconds) public pure returns (uint newTimestamp) {\r\n        newTimestamp = timestamp + _seconds;\r\n        require(newTimestamp >= timestamp);\r\n    }\r\n\r\n    function subYears(uint timestamp, uint _years) public pure returns (uint newTimestamp) {\r\n        uint year;\r\n        uint month;\r\n        uint day;\r\n        (year, month, day) = _daysToDate(timestamp / SECONDS_PER_DAY);\r\n        year -= _years;\r\n        uint daysInMonth = _getDaysInMonth(year, month);\r\n        if (day > daysInMonth) {\r\n            day = daysInMonth;\r\n        }\r\n        newTimestamp = _daysFromDate(year, month, day) * SECONDS_PER_DAY + timestamp % SECONDS_PER_DAY;\r\n        require(newTimestamp <= timestamp);\r\n    }\r\n    function subMonths(uint timestamp, uint _months) public pure returns (uint newTimestamp) {\r\n        uint year;\r\n        uint month;\r\n        uint day;\r\n        (year, month, day) = _daysToDate(timestamp / SECONDS_PER_DAY);\r\n        uint yearMonth = year * 12 + (month - 1) - _months;\r\n        year = yearMonth / 12;\r\n        month = yearMonth % 12 + 1;\r\n        uint daysInMonth = _getDaysInMonth(year, month);\r\n        if (day > daysInMonth) {\r\n            day = daysInMonth;\r\n        }\r\n        newTimestamp = _daysFromDate(year, month, day) * SECONDS_PER_DAY + timestamp % SECONDS_PER_DAY;\r\n        require(newTimestamp <= timestamp);\r\n    }\r\n    function subDays(uint timestamp, uint _days) public pure returns (uint newTimestamp) {\r\n        newTimestamp = timestamp - _days * SECONDS_PER_DAY;\r\n        require(newTimestamp <= timestamp);\r\n    }\r\n    function subHours(uint timestamp, uint _hours) public pure returns (uint newTimestamp) {\r\n        newTimestamp = timestamp - _hours * SECONDS_PER_HOUR;\r\n        require(newTimestamp <= timestamp);\r\n    }\r\n    function subMinutes(uint timestamp, uint _minutes) public pure returns (uint newTimestamp) {\r\n        newTimestamp = timestamp - _minutes * SECONDS_PER_MINUTE;\r\n        require(newTimestamp <= timestamp);\r\n    }\r\n    function subSeconds(uint timestamp, uint _seconds) public pure returns (uint newTimestamp) {\r\n        newTimestamp = timestamp - _seconds;\r\n        require(newTimestamp <= timestamp);\r\n    }\r\n\r\n    function diffYears(uint fromTimestamp, uint toTimestamp) public pure returns (uint _years) {\r\n        require(fromTimestamp <= toTimestamp);\r\n        uint fromYear;\r\n        uint fromMonth;\r\n        uint fromDay;\r\n        uint toYear;\r\n        uint toMonth;\r\n        uint toDay;\r\n        (fromYear, fromMonth, fromDay) = _daysToDate(fromTimestamp / SECONDS_PER_DAY);\r\n        (toYear, toMonth, toDay) = _daysToDate(toTimestamp / SECONDS_PER_DAY);\r\n        _years = toYear - fromYear;\r\n    }\r\n    function diffMonths(uint fromTimestamp, uint toTimestamp) public pure returns (uint _months) {\r\n        require(fromTimestamp <= toTimestamp);\r\n        uint fromYear;\r\n        uint fromMonth;\r\n        uint fromDay;\r\n        uint toYear;\r\n        uint toMonth;\r\n        uint toDay;\r\n        (fromYear, fromMonth, fromDay) = _daysToDate(fromTimestamp / SECONDS_PER_DAY);\r\n        (toYear, toMonth, toDay) = _daysToDate(toTimestamp / SECONDS_PER_DAY);\r\n        _months = toYear * 12 + toMonth - fromYear * 12 - fromMonth;\r\n    }\r\n    function diffDays(uint fromTimestamp, uint toTimestamp) public pure returns (uint _days) {\r\n        require(fromTimestamp <= toTimestamp);\r\n        _days = (toTimestamp - fromTimestamp) / SECONDS_PER_DAY;\r\n    }\r\n    function diffHours(uint fromTimestamp, uint toTimestamp) public pure returns (uint _hours) {\r\n        require(fromTimestamp <= toTimestamp);\r\n        _hours = (toTimestamp - fromTimestamp) / SECONDS_PER_HOUR;\r\n    }\r\n    function diffMinutes(uint fromTimestamp, uint toTimestamp) public pure returns (uint _minutes) {\r\n        require(fromTimestamp <= toTimestamp);\r\n        _minutes = (toTimestamp - fromTimestamp) / SECONDS_PER_MINUTE;\r\n    }\r\n    function diffSeconds(uint fromTimestamp, uint toTimestamp) public pure returns (uint _seconds) {\r\n        require(fromTimestamp <= toTimestamp);\r\n        _seconds = toTimestamp - fromTimestamp;\r\n    }\r\n}",
  "sourcePath": "C:\\Users\\cr100131\\apps\\test\\contracts\\BokkyPooBahsDateTimeLibrary.sol",
  "compiler": {
    "name": "solc",
    "version": "0.8.2+commit.661d1103.Emscripten.clang"
  },
  "schemaVersion": "3.3.4",
  "updatedAt": "2021-04-14T12:33:54.843Z",
  "devdoc": {
    "kind": "dev",
    "methods": {},
    "version": 1
  },
  "userdoc": {
    "kind": "user",
    "methods": {},
    "version": 1
  }
}