{
  "contractName": "Contribution",
  "abi": [
    {
      "inputs": [],
      "stateMutability": "nonpayable",
      "type": "constructor"
    },
    {
      "anonymous": false,
      "inputs": [
        {
          "indexed": true,
          "internalType": "address",
          "name": "owner",
          "type": "address"
        },
        {
          "indexed": true,
          "internalType": "address",
          "name": "spender",
          "type": "address"
        },
        {
          "indexed": false,
          "internalType": "uint256",
          "name": "value",
          "type": "uint256"
        }
      ],
      "name": "Approval",
      "type": "event"
    },
    {
      "anonymous": false,
      "inputs": [
        {
          "indexed": false,
          "internalType": "uint256",
          "name": "value",
          "type": "uint256"
        }
      ],
      "name": "DonationReceived",
      "type": "event"
    },
    {
      "anonymous": false,
      "inputs": [
        {
          "indexed": true,
          "internalType": "address",
          "name": "from",
          "type": "address"
        },
        {
          "indexed": true,
          "internalType": "address",
          "name": "to",
          "type": "address"
        },
        {
          "indexed": false,
          "internalType": "uint256",
          "name": "value",
          "type": "uint256"
        }
      ],
      "name": "Transfer",
      "type": "event"
    },
    {
      "inputs": [
        {
          "internalType": "address",
          "name": "owner",
          "type": "address"
        },
        {
          "internalType": "address",
          "name": "spender",
          "type": "address"
        }
      ],
      "name": "allowance",
      "outputs": [
        {
          "internalType": "uint256",
          "name": "",
          "type": "uint256"
        }
      ],
      "stateMutability": "view",
      "type": "function"
    },
    {
      "inputs": [
        {
          "internalType": "address",
          "name": "spender",
          "type": "address"
        },
        {
          "internalType": "uint256",
          "name": "amount",
          "type": "uint256"
        }
      ],
      "name": "approve",
      "outputs": [
        {
          "internalType": "bool",
          "name": "",
          "type": "bool"
        }
      ],
      "stateMutability": "nonpayable",
      "type": "function"
    },
    {
      "inputs": [
        {
          "internalType": "address",
          "name": "account",
          "type": "address"
        }
      ],
      "name": "balanceOf",
      "outputs": [
        {
          "internalType": "uint256",
          "name": "",
          "type": "uint256"
        }
      ],
      "stateMutability": "view",
      "type": "function"
    },
    {
      "inputs": [
        {
          "internalType": "address",
          "name": "",
          "type": "address"
        }
      ],
      "name": "balances",
      "outputs": [
        {
          "internalType": "uint256",
          "name": "",
          "type": "uint256"
        }
      ],
      "stateMutability": "view",
      "type": "function"
    },
    {
      "inputs": [],
      "name": "decimals",
      "outputs": [
        {
          "internalType": "uint8",
          "name": "",
          "type": "uint8"
        }
      ],
      "stateMutability": "view",
      "type": "function"
    },
    {
      "inputs": [
        {
          "internalType": "address",
          "name": "spender",
          "type": "address"
        },
        {
          "internalType": "uint256",
          "name": "subtractedValue",
          "type": "uint256"
        }
      ],
      "name": "decreaseAllowance",
      "outputs": [
        {
          "internalType": "bool",
          "name": "",
          "type": "bool"
        }
      ],
      "stateMutability": "nonpayable",
      "type": "function"
    },
    {
      "inputs": [
        {
          "internalType": "uint256",
          "name": "",
          "type": "uint256"
        }
      ],
      "name": "donors",
      "outputs": [
        {
          "internalType": "address",
          "name": "",
          "type": "address"
        }
      ],
      "stateMutability": "view",
      "type": "function"
    },
    {
      "inputs": [
        {
          "internalType": "address",
          "name": "spender",
          "type": "address"
        },
        {
          "internalType": "uint256",
          "name": "addedValue",
          "type": "uint256"
        }
      ],
      "name": "increaseAllowance",
      "outputs": [
        {
          "internalType": "bool",
          "name": "",
          "type": "bool"
        }
      ],
      "stateMutability": "nonpayable",
      "type": "function"
    },
    {
      "inputs": [],
      "name": "name",
      "outputs": [
        {
          "internalType": "string",
          "name": "",
          "type": "string"
        }
      ],
      "stateMutability": "view",
      "type": "function"
    },
    {
      "inputs": [],
      "name": "symbol",
      "outputs": [
        {
          "internalType": "string",
          "name": "",
          "type": "string"
        }
      ],
      "stateMutability": "view",
      "type": "function"
    },
    {
      "inputs": [],
      "name": "tokenValue",
      "outputs": [
        {
          "internalType": "uint256",
          "name": "",
          "type": "uint256"
        }
      ],
      "stateMutability": "view",
      "type": "function"
    },
    {
      "inputs": [],
      "name": "totalSupply",
      "outputs": [
        {
          "internalType": "uint256",
          "name": "",
          "type": "uint256"
        }
      ],
      "stateMutability": "view",
      "type": "function"
    },
    {
      "inputs": [
        {
          "internalType": "address",
          "name": "recipient",
          "type": "address"
        },
        {
          "internalType": "uint256",
          "name": "amount",
          "type": "uint256"
        }
      ],
      "name": "transfer",
      "outputs": [
        {
          "internalType": "bool",
          "name": "",
          "type": "bool"
        }
      ],
      "stateMutability": "nonpayable",
      "type": "function"
    },
    {
      "inputs": [
        {
          "internalType": "address",
          "name": "sender",
          "type": "address"
        },
        {
          "internalType": "address",
          "name": "recipient",
          "type": "address"
        },
        {
          "internalType": "uint256",
          "name": "amount",
          "type": "uint256"
        }
      ],
      "name": "transferFrom",
      "outputs": [
        {
          "internalType": "bool",
          "name": "",
          "type": "bool"
        }
      ],
      "stateMutability": "nonpayable",
      "type": "function"
    },
    {
      "inputs": [],
      "name": "donate",
      "outputs": [],
      "stateMutability": "payable",
      "type": "function"
    },
    {
      "inputs": [
        {
          "internalType": "address",
          "name": "_requestedAddress",
          "type": "address"
        }
      ],
      "name": "withdraw",
      "outputs": [],
      "stateMutability": "nonpayable",
      "type": "function"
    },
    {
      "inputs": [],
      "name": "getDonorIndex",
      "outputs": [
        {
          "internalType": "uint256",
          "name": "",
          "type": "uint256"
        }
      ],
      "stateMutability": "view",
      "type": "function"
    },
    {
      "inputs": [],
      "name": "getSender",
      "outputs": [
        {
          "internalType": "address",
          "name": "",
          "type": "address"
        }
      ],
      "stateMutability": "view",
      "type": "function"
    }
  ],
  "bytecode": "0x60806040523480156200001157600080fd5b506040518060400160405280600c81526020017f636f6e747269627574696f6e00000000000000000000000000000000000000008152506040518060400160405280600481526020017f434f4e5400000000000000000000000000000000000000000000000000000000815250816003908051906020019062000096929190620000b8565b508060049080519060200190620000af929190620000b8565b505050620001cd565b828054620000c69062000168565b90600052602060002090601f016020900481019282620000ea576000855562000136565b82601f106200010557805160ff191683800117855562000136565b8280016001018555821562000136579182015b828111156200013557825182559160200191906001019062000118565b5b50905062000145919062000149565b5090565b5b80821115620001645760008160009055506001016200014a565b5090565b600060028204905060018216806200018157607f821691505b602082108114156200019857620001976200019e565b5b50919050565b7f4e487b7100000000000000000000000000000000000000000000000000000000600052602260045260246000fd5b611ffb80620001dd6000396000f3fe6080604052600436106101095760003560e01c80634abfa1631161009557806395d89b411161006457806395d89b41146103a7578063a457c2d7146103d2578063a9059cbb1461040f578063dd62ed3e1461044c578063ed88c68e1461048957610109565b80634abfa163146102d957806351cff8d9146103165780635e01eb5a1461033f57806370a082311461036a57610109565b80631ec7e345116100dc5780631ec7e345146101cc57806323b872dd146101f757806327e235e314610234578063313ce56714610271578063395093511461029c57610109565b806306fdde031461010e578063095ea7b3146101395780630f3d58501461017657806318160ddd146101a1575b600080fd5b34801561011a57600080fd5b50610123610493565b60405161013091906118ae565b60405180910390f35b34801561014557600080fd5b50610160600480360381019061015b919061161d565b610525565b60405161016d9190611893565b60405180910390f35b34801561018257600080fd5b5061018b610543565b6040516101989190611a30565b60405180910390f35b3480156101ad57600080fd5b506101b6610615565b6040516101c39190611a30565b60405180910390f35b3480156101d857600080fd5b506101e161061f565b6040516101ee9190611a30565b60405180910390f35b34801561020357600080fd5b5061021e600480360381019061021991906115ce565b610625565b60405161022b9190611893565b60405180910390f35b34801561024057600080fd5b5061025b60048036038101906102569190611569565b610726565b6040516102689190611a30565b60405180910390f35b34801561027d57600080fd5b5061028661073e565b6040516102939190611a4b565b60405180910390f35b3480156102a857600080fd5b506102c360048036038101906102be919061161d565b610747565b6040516102d09190611893565b60405180910390f35b3480156102e557600080fd5b5061030060048036038101906102fb9190611659565b6107f3565b60405161030d9190611878565b60405180910390f35b34801561032257600080fd5b5061033d60048036038101906103389190611569565b610832565b005b34801561034b57600080fd5b5061035461095b565b6040516103619190611878565b60405180910390f35b34801561037657600080fd5b50610391600480360381019061038c9190611569565b610963565b60405161039e9190611a30565b60405180910390f35b3480156103b357600080fd5b506103bc6109ab565b6040516103c991906118ae565b60405180910390f35b3480156103de57600080fd5b506103f960048036038101906103f4919061161d565b610a3d565b6040516104069190611893565b60405180910390f35b34801561041b57600080fd5b506104366004803603810190610431919061161d565b610b31565b6040516104439190611893565b60405180910390f35b34801561045857600080fd5b50610473600480360381019061046e9190611592565b610b4f565b6040516104809190611a30565b60405180910390f35b610491610bd6565b005b6060600380546104a290611b94565b80601f01602080910402602001604051908101604052809291908181526020018280546104ce90611b94565b801561051b5780601f106104f05761010080835404028352916020019161051b565b820191906000526020600020905b8154815290600101906020018083116104fe57829003601f168201915b5050505050905090565b6000610539610532610da5565b8484610dad565b6001905092915050565b6000806000905060005b60068054905081101561060f573373ffffffffffffffffffffffffffffffffffffffff16600682815481106105ab577f4e487b7100000000000000000000000000000000000000000000000000000000600052603260045260246000fd5b9060005260206000200160009054906101000a900473ffffffffffffffffffffffffffffffffffffffff1673ffffffffffffffffffffffffffffffffffffffff1614156105fc578192505050610612565b808061060790611bc6565b91505061054d565b50505b90565b6000600254905090565b60055481565b6000610632848484610f78565b6000600160008673ffffffffffffffffffffffffffffffffffffffff1673ffffffffffffffffffffffffffffffffffffffff168152602001908152602001600020600061067d610da5565b73ffffffffffffffffffffffffffffffffffffffff1673ffffffffffffffffffffffffffffffffffffffff168152602001908152602001600020549050828110156106fd576040517f08c379a00000000000000000000000000000000000000000000000000000000081526004016106f490611950565b60405180910390fd5b61071a85610709610da5565b85846107159190611ad8565b610dad565b60019150509392505050565b60076020528060005260406000206000915090505481565b60006012905090565b60006107e9610754610da5565b848460016000610762610da5565b73ffffffffffffffffffffffffffffffffffffffff1673ffffffffffffffffffffffffffffffffffffffff16815260200190815260200160002060008873ffffffffffffffffffffffffffffffffffffffff1673ffffffffffffffffffffffffffffffffffffffff168152602001908152602001600020546107e49190611a82565b610dad565b6001905092915050565b6006818154811061080357600080fd5b906000526020600020016000915054906101000a900473ffffffffffffffffffffffffffffffffffffffff1681565b6000600760008373ffffffffffffffffffffffffffffffffffffffff1673ffffffffffffffffffffffffffffffffffffffff16815260200190815260200160002054905061088082826111f7565b600061088b83610963565b146108cb576040517f08c379a00000000000000000000000000000000000000000000000000000000081526004016108c290611970565b60405180910390fd5b8173ffffffffffffffffffffffffffffffffffffffff166108fc829081150290604051600060405180830381858888f19350505050158015610911573d6000803e3d6000fd5b506000600760008473ffffffffffffffffffffffffffffffffffffffff1673ffffffffffffffffffffffffffffffffffffffff168152602001908152602001600020819055505050565b600033905090565b60008060008373ffffffffffffffffffffffffffffffffffffffff1673ffffffffffffffffffffffffffffffffffffffff168152602001908152602001600020549050919050565b6060600480546109ba90611b94565b80601f01602080910402602001604051908101604052809291908181526020018280546109e690611b94565b8015610a335780601f10610a0857610100808354040283529160200191610a33565b820191906000526020600020905b815481529060010190602001808311610a1657829003601f168201915b5050505050905090565b60008060016000610a4c610da5565b73ffffffffffffffffffffffffffffffffffffffff1673ffffffffffffffffffffffffffffffffffffffff16815260200190815260200160002060008573ffffffffffffffffffffffffffffffffffffffff1673ffffffffffffffffffffffffffffffffffffffff16815260200190815260200160002054905082811015610b09576040517f08c379a0000000000000000000000000000000000000000000000000000000008152600401610b00906119f0565b60405180910390fd5b610b26610b14610da5565b858584610b219190611ad8565b610dad565b600191505092915050565b6000610b45610b3e610da5565b8484610f78565b6001905092915050565b6000600160008473ffffffffffffffffffffffffffffffffffffffff1673ffffffffffffffffffffffffffffffffffffffff16815260200190815260200160002060008373ffffffffffffffffffffffffffffffffffffffff1673ffffffffffffffffffffffffffffffffffffffff16815260200190815260200160002054905092915050565b6000805b600680549050811015610c9b573373ffffffffffffffffffffffffffffffffffffffff1660068281548110610c38577f4e487b7100000000000000000000000000000000000000000000000000000000600052603260045260246000fd5b9060005260206000200160009054906101000a900473ffffffffffffffffffffffffffffffffffffffff1673ffffffffffffffffffffffffffffffffffffffff161415610c885760019150610c9b565b8080610c9390611bc6565b915050610bda565b5060018160ff161415610d0c576006339080600181540180825580915050600190039060005260206000200160009091909190916101000a81548173ffffffffffffffffffffffffffffffffffffffff021916908373ffffffffffffffffffffffffffffffffffffffff1602179055505b610d1534611205565b34600760003373ffffffffffffffffffffffffffffffffffffffff1673ffffffffffffffffffffffffffffffffffffffff1681526020019081526020016000206000828254610d649190611a82565b925050819055507f9874a7967abbb8701e946ae29391c091f59962f042ba4b5d99b1ed7f2e2e3e5534604051610d9a9190611a30565b60405180910390a150565b600033905090565b600073ffffffffffffffffffffffffffffffffffffffff168373ffffffffffffffffffffffffffffffffffffffff161415610e1d576040517f08c379a0000000000000000000000000000000000000000000000000000000008152600401610e14906119d0565b60405180910390fd5b600073ffffffffffffffffffffffffffffffffffffffff168273ffffffffffffffffffffffffffffffffffffffff161415610e8d576040517f08c379a0000000000000000000000000000000000000000000000000000000008152600401610e8490611910565b60405180910390fd5b80600160008573ffffffffffffffffffffffffffffffffffffffff1673ffffffffffffffffffffffffffffffffffffffff16815260200190815260200160002060008473ffffffffffffffffffffffffffffffffffffffff1673ffffffffffffffffffffffffffffffffffffffff168152602001908152602001600020819055508173ffffffffffffffffffffffffffffffffffffffff168373ffffffffffffffffffffffffffffffffffffffff167f8c5be1e5ebec7d5bd14f71427d1e84f3dd0314c0f7b2291e5b200ac8c7c3b92583604051610f6b9190611a30565b60405180910390a3505050565b600073ffffffffffffffffffffffffffffffffffffffff168373ffffffffffffffffffffffffffffffffffffffff161415610fe8576040517f08c379a0000000000000000000000000000000000000000000000000000000008152600401610fdf906119b0565b60405180910390fd5b600073ffffffffffffffffffffffffffffffffffffffff168273ffffffffffffffffffffffffffffffffffffffff161415611058576040517f08c379a000000000000000000000000000000000000000000000000000000000815260040161104f906118d0565b60405180910390fd5b611063838383611212565b60008060008573ffffffffffffffffffffffffffffffffffffffff1673ffffffffffffffffffffffffffffffffffffffff168152602001908152602001600020549050818110156110e9576040517f08c379a00000000000000000000000000000000000000000000000000000000081526004016110e090611930565b60405180910390fd5b81816110f59190611ad8565b6000808673ffffffffffffffffffffffffffffffffffffffff1673ffffffffffffffffffffffffffffffffffffffff16815260200190815260200160002081905550816000808573ffffffffffffffffffffffffffffffffffffffff1673ffffffffffffffffffffffffffffffffffffffff16815260200190815260200160002060008282546111859190611a82565b925050819055508273ffffffffffffffffffffffffffffffffffffffff168473ffffffffffffffffffffffffffffffffffffffff167fddf252ad1be2c89b69c2b068fc378daa952ba7f163c4a11628f55a4df523b3ef846040516111e99190611a30565b60405180910390a350505050565b6112018282611217565b5050565b61120f33826113eb565b50565b505050565b600073ffffffffffffffffffffffffffffffffffffffff168273ffffffffffffffffffffffffffffffffffffffff161415611287576040517f08c379a000000000000000000000000000000000000000000000000000000000815260040161127e90611990565b60405180910390fd5b61129382600083611212565b60008060008473ffffffffffffffffffffffffffffffffffffffff1673ffffffffffffffffffffffffffffffffffffffff16815260200190815260200160002054905081811015611319576040517f08c379a0000000000000000000000000000000000000000000000000000000008152600401611310906118f0565b60405180910390fd5b81816113259190611ad8565b6000808573ffffffffffffffffffffffffffffffffffffffff1673ffffffffffffffffffffffffffffffffffffffff1681526020019081526020016000208190555081600260008282546113799190611ad8565b92505081905550600073ffffffffffffffffffffffffffffffffffffffff168373ffffffffffffffffffffffffffffffffffffffff167fddf252ad1be2c89b69c2b068fc378daa952ba7f163c4a11628f55a4df523b3ef846040516113de9190611a30565b60405180910390a3505050565b600073ffffffffffffffffffffffffffffffffffffffff168273ffffffffffffffffffffffffffffffffffffffff16141561145b576040517f08c379a000000000000000000000000000000000000000000000000000000000815260040161145290611a10565b60405180910390fd5b61146760008383611212565b80600260008282546114799190611a82565b92505081905550806000808473ffffffffffffffffffffffffffffffffffffffff1673ffffffffffffffffffffffffffffffffffffffff16815260200190815260200160002060008282546114ce9190611a82565b925050819055508173ffffffffffffffffffffffffffffffffffffffff16600073ffffffffffffffffffffffffffffffffffffffff167fddf252ad1be2c89b69c2b068fc378daa952ba7f163c4a11628f55a4df523b3ef836040516115339190611a30565b60405180910390a35050565b60008135905061154e81611f97565b92915050565b60008135905061156381611fae565b92915050565b60006020828403121561157b57600080fd5b60006115898482850161153f565b91505092915050565b600080604083850312156115a557600080fd5b60006115b38582860161153f565b92505060206115c48582860161153f565b9150509250929050565b6000806000606084860312156115e357600080fd5b60006115f18682870161153f565b93505060206116028682870161153f565b925050604061161386828701611554565b9150509250925092565b6000806040838503121561163057600080fd5b600061163e8582860161153f565b925050602061164f85828601611554565b9150509250929050565b60006020828403121561166b57600080fd5b600061167984828501611554565b91505092915050565b61168b81611b0c565b82525050565b61169a81611b1e565b82525050565b60006116ab82611a66565b6116b58185611a71565b93506116c5818560208601611b61565b6116ce81611c6d565b840191505092915050565b60006116e6602383611a71565b91506116f182611c7e565b604082019050919050565b6000611709602283611a71565b915061171482611ccd565b604082019050919050565b600061172c602283611a71565b915061173782611d1c565b604082019050919050565b600061174f602683611a71565b915061175a82611d6b565b604082019050919050565b6000611772602883611a71565b915061177d82611dba565b604082019050919050565b6000611795601183611a71565b91506117a082611e09565b602082019050919050565b60006117b8602183611a71565b91506117c382611e32565b604082019050919050565b60006117db602583611a71565b91506117e682611e81565b604082019050919050565b60006117fe602483611a71565b915061180982611ed0565b604082019050919050565b6000611821602583611a71565b915061182c82611f1f565b604082019050919050565b6000611844601f83611a71565b915061184f82611f6e565b602082019050919050565b61186381611b4a565b82525050565b61187281611b54565b82525050565b600060208201905061188d6000830184611682565b92915050565b60006020820190506118a86000830184611691565b92915050565b600060208201905081810360008301526118c881846116a0565b905092915050565b600060208201905081810360008301526118e9816116d9565b9050919050565b60006020820190508181036000830152611909816116fc565b9050919050565b600060208201905081810360008301526119298161171f565b9050919050565b6000602082019050818103600083015261194981611742565b9050919050565b6000602082019050818103600083015261196981611765565b9050919050565b6000602082019050818103600083015261198981611788565b9050919050565b600060208201905081810360008301526119a9816117ab565b9050919050565b600060208201905081810360008301526119c9816117ce565b9050919050565b600060208201905081810360008301526119e9816117f1565b9050919050565b60006020820190508181036000830152611a0981611814565b9050919050565b60006020820190508181036000830152611a2981611837565b9050919050565b6000602082019050611a45600083018461185a565b92915050565b6000602082019050611a606000830184611869565b92915050565b600081519050919050565b600082825260208201905092915050565b6000611a8d82611b4a565b9150611a9883611b4a565b9250827fffffffffffffffffffffffffffffffffffffffffffffffffffffffffffffffff03821115611acd57611acc611c0f565b5b828201905092915050565b6000611ae382611b4a565b9150611aee83611b4a565b925082821015611b0157611b00611c0f565b5b828203905092915050565b6000611b1782611b2a565b9050919050565b60008115159050919050565b600073ffffffffffffffffffffffffffffffffffffffff82169050919050565b6000819050919050565b600060ff82169050919050565b60005b83811015611b7f578082015181840152602081019050611b64565b83811115611b8e576000848401525b50505050565b60006002820490506001821680611bac57607f821691505b60208210811415611bc057611bbf611c3e565b5b50919050565b6000611bd182611b4a565b91507fffffffffffffffffffffffffffffffffffffffffffffffffffffffffffffffff821415611c0457611c03611c0f565b5b600182019050919050565b7f4e487b7100000000000000000000000000000000000000000000000000000000600052601160045260246000fd5b7f4e487b7100000000000000000000000000000000000000000000000000000000600052602260045260246000fd5b6000601f19601f8301169050919050565b7f45524332303a207472616e7366657220746f20746865207a65726f206164647260008201527f6573730000000000000000000000000000000000000000000000000000000000602082015250565b7f45524332303a206275726e20616d6f756e7420657863656564732062616c616e60008201527f6365000000000000000000000000000000000000000000000000000000000000602082015250565b7f45524332303a20617070726f766520746f20746865207a65726f20616464726560008201527f7373000000000000000000000000000000000000000000000000000000000000602082015250565b7f45524332303a207472616e7366657220616d6f756e742065786365656473206260008201527f616c616e63650000000000000000000000000000000000000000000000000000602082015250565b7f45524332303a207472616e7366657220616d6f756e742065786365656473206160008201527f6c6c6f77616e6365000000000000000000000000000000000000000000000000602082015250565b7f4552433230206275726e206661696c6564000000000000000000000000000000600082015250565b7f45524332303a206275726e2066726f6d20746865207a65726f2061646472657360008201527f7300000000000000000000000000000000000000000000000000000000000000602082015250565b7f45524332303a207472616e736665722066726f6d20746865207a65726f20616460008201527f6472657373000000000000000000000000000000000000000000000000000000602082015250565b7f45524332303a20617070726f76652066726f6d20746865207a65726f2061646460008201527f7265737300000000000000000000000000000000000000000000000000000000602082015250565b7f45524332303a2064656372656173656420616c6c6f77616e63652062656c6f7760008201527f207a65726f000000000000000000000000000000000000000000000000000000602082015250565b7f45524332303a206d696e7420746f20746865207a65726f206164647265737300600082015250565b611fa081611b0c565b8114611fab57600080fd5b50565b611fb781611b4a565b8114611fc257600080fd5b5056fea26469706673582212203b1ca0d9e9ab2e3ec5627c52e37908ee48f8c28eda35001be223d634013663fa64736f6c63430008020033",
  "immutableReferences": {},
  "source": "// SPDX-License-Identifier: MIT\r\npragma solidity >=0.4.22 <0.9.0;\r\n\r\nimport \"../node_modules/@openzeppelin/contracts/token/ERC20/ERC20.sol\";\r\n\r\ncontract Contribution is ERC20{\r\n\r\n    uint256 public tokenValue;\r\n    address[] public donors;\r\n    mapping (address => uint256) public balances;\r\n\r\n\r\n    event DonationReceived(uint256 value);\r\n\r\n\r\n    constructor() ERC20('contribution', 'CONT'){\r\n    }\r\n    \r\n    function donate() external payable{\r\n        uint8 find = 0;\r\n        for(uint i; i < donors.length; i++){\r\n            if(donors[i] == msg.sender){\r\n                find=1;\r\n                break;\r\n            }\r\n        }\r\n\r\n        if(find == 1){\r\n            donors.push(msg.sender);\r\n        }\r\n        mint(msg.value);\r\n        balances[msg.sender] += msg.value;\r\n        emit DonationReceived(msg.value);\r\n\r\n    }\r\n\r\n    function withdraw(address _requestedAddress) external {\r\n        uint256 value = balances[_requestedAddress];\r\n        burn(_requestedAddress, value);\r\n        require(balanceOf(_requestedAddress) == 0, \"ERC20 burn failed\");\r\n        payable(_requestedAddress).transfer(value);\r\n        balances[_requestedAddress] = 0;\r\n\r\n\r\n    }\r\n\r\n    function getDonorIndex() external view returns(uint256){\r\n        uint256 j = 0;\r\n        for(uint256 i; i < donors.length; i++){\r\n            if(donors[i] == msg.sender){\r\n                return j;\r\n            } \r\n        }\r\n    }\r\n\r\n    function mint(uint256 _amount) internal{\r\n        _mint(msg.sender, _amount);\r\n    }\r\n\r\n    function burn(address _requestedAddress, uint256 _amount) internal{\r\n        _burn(_requestedAddress, _amount);\r\n    }\r\n\r\n    \r\n    function getSender() external view returns(address){\r\n        return msg.sender;\r\n    }\r\n}",
  "sourcePath": "C:/Users/cr100131/apps/test/contracts/Contribution.sol",
  "compiler": {
    "name": "solc",
    "version": "0.8.2+commit.661d1103.Emscripten.clang"
  },
  "schemaVersion": "3.3.4",
  "updatedAt": "2021-04-14T12:33:54.940Z",
  "devdoc": {
    "kind": "dev",
    "methods": {
      "allowance(address,address)": {
        "details": "See {IERC20-allowance}."
      },
      "approve(address,uint256)": {
        "details": "See {IERC20-approve}. Requirements: - `spender` cannot be the zero address."
      },
      "balanceOf(address)": {
        "details": "See {IERC20-balanceOf}."
      },
      "decimals()": {
        "details": "Returns the number of decimals used to get its user representation. For example, if `decimals` equals `2`, a balance of `505` tokens should be displayed to a user as `5,05` (`505 / 10 ** 2`). Tokens usually opt for a value of 18, imitating the relationship between Ether and Wei. This is the value {ERC20} uses, unless this function is overloaded; NOTE: This information is only used for _display_ purposes: it in no way affects any of the arithmetic of the contract, including {IERC20-balanceOf} and {IERC20-transfer}."
      },
      "decreaseAllowance(address,uint256)": {
        "details": "Atomically decreases the allowance granted to `spender` by the caller. This is an alternative to {approve} that can be used as a mitigation for problems described in {IERC20-approve}. Emits an {Approval} event indicating the updated allowance. Requirements: - `spender` cannot be the zero address. - `spender` must have allowance for the caller of at least `subtractedValue`."
      },
      "increaseAllowance(address,uint256)": {
        "details": "Atomically increases the allowance granted to `spender` by the caller. This is an alternative to {approve} that can be used as a mitigation for problems described in {IERC20-approve}. Emits an {Approval} event indicating the updated allowance. Requirements: - `spender` cannot be the zero address."
      },
      "name()": {
        "details": "Returns the name of the token."
      },
      "symbol()": {
        "details": "Returns the symbol of the token, usually a shorter version of the name."
      },
      "totalSupply()": {
        "details": "See {IERC20-totalSupply}."
      },
      "transfer(address,uint256)": {
        "details": "See {IERC20-transfer}. Requirements: - `recipient` cannot be the zero address. - the caller must have a balance of at least `amount`."
      },
      "transferFrom(address,address,uint256)": {
        "details": "See {IERC20-transferFrom}. Emits an {Approval} event indicating the updated allowance. This is not required by the EIP. See the note at the beginning of {ERC20}. Requirements: - `sender` and `recipient` cannot be the zero address. - `sender` must have a balance of at least `amount`. - the caller must have allowance for ``sender``'s tokens of at least `amount`."
      }
    },
    "version": 1
  },
  "userdoc": {
    "kind": "user",
    "methods": {},
    "version": 1
  }
}