{
  "contractName": "MyDateLibrary",
  "abi": [
    {
      "inputs": [],
      "name": "getLastBlockTimeStamp",
      "outputs": [
        {
          "internalType": "uint256",
          "name": "",
          "type": "uint256"
        }
      ],
      "stateMutability": "view",
      "type": "function"
    },
    {
      "inputs": [],
      "name": "getNewDayTimeStamp",
      "outputs": [
        {
          "internalType": "uint256",
          "name": "",
          "type": "uint256"
        }
      ],
      "stateMutability": "view",
      "type": "function"
    },
    {
      "inputs": [],
      "name": "getCurrentTimeInDay",
      "outputs": [
        {
          "internalType": "uint256",
          "name": "",
          "type": "uint256"
        }
      ],
      "stateMutability": "view",
      "type": "function"
    }
  ],
  "bytecode": "0x61050a610053600b82828239805160001a607314610046577f4e487b7100000000000000000000000000000000000000000000000000000000600052600060045260246000fd5b30600052607381538281f3fe730000000000000000000000000000000000000000301460806040526004361061004b5760003560e01c806316d0c2b2146100505780632cecc2651461006e57806388ce35581461008c575b600080fd5b6100586100aa565b60405161006591906103fc565b60405180910390f35b6100766102fa565b60405161008391906103fc565b60405180910390f35b610094610302565b6040516100a191906103fc565b60405180910390f35b6000806100b56102fa565b9050600073__BokkyPooBahsDateTimeLibrary___________6392d66313836040518263ffffffff1660e01b81526004016100f091906103fc565b60206040518083038186803b15801561010857600080fd5b505af415801561011c573d6000803e3d6000fd5b505050506040513d601f19601f8201168201806040525081019061014091906103b5565b9050600073__BokkyPooBahsDateTimeLibrary___________63a324ad24846040518263ffffffff1660e01b815260040161017b91906103fc565b60206040518083038186803b15801561019357600080fd5b505af41580156101a7573d6000803e3d6000fd5b505050506040513d601f19601f820116820180604052508101906101cb91906103b5565b9050600073__BokkyPooBahsDateTimeLibrary___________6365c72840856040518263ffffffff1660e01b815260040161020691906103fc565b60206040518083038186803b15801561021e57600080fd5b505af4158015610232573d6000803e3d6000fd5b505050506040513d601f19601f8201168201806040525081019061025691906103b5565b9050600073__BokkyPooBahsDateTimeLibrary___________635e05bd6d85858560008060006040518763ffffffff1660e01b815260040161029d96959493929190610440565b60206040518083038186803b1580156102b557600080fd5b505af41580156102c9573d6000803e3d6000fd5b505050506040513d601f19601f820116820180604052508101906102ed91906103b5565b9050809550505050505090565b600042905090565b600073__BokkyPooBahsDateTimeLibrary___________6362fb96976103266100aa565b61032e6102fa565b6040518363ffffffff1660e01b815260040161034b929190610417565b60206040518083038186803b15801561036357600080fd5b505af4158015610377573d6000803e3d6000fd5b505050506040513d601f19601f8201168201806040525081019061039b91906103b5565b905090565b6000815190506103af816104bd565b92915050565b6000602082840312156103c757600080fd5b60006103d5848285016103a0565b91505092915050565b6103e7816104ab565b82525050565b6103f6816104a1565b82525050565b600060208201905061041160008301846103ed565b92915050565b600060408201905061042c60008301856103ed565b61043960208301846103ed565b9392505050565b600060c08201905061045560008301896103ed565b61046260208301886103ed565b61046f60408301876103ed565b61047c60608301866103de565b61048960808301856103de565b61049660a08301846103de565b979650505050505050565b6000819050919050565b60006104b6826104a1565b9050919050565b6104c6816104a1565b81146104d157600080fd5b5056fea26469706673582212204a827ca2bd8416de3908e8b812ae9ff07cd516b0d0682b509f20f92e469b5dc164736f6c63430008020033",
  "immutableReferences": {},
  "source": "pragma solidity >=0.4.24;\r\n\r\nimport \"./BokkyPooBahsDateTimeLibrary.sol\";\r\n\r\nlibrary MyDateLibrary {\r\n\r\n    function getLastBlockTimeStamp() public view returns(uint256){\r\n        return block.timestamp;\r\n    }\r\n\r\n    function getNewDayTimeStamp() public view returns(uint256){\r\n        uint256 lastBlockTime = getLastBlockTimeStamp();\r\n        uint256 currentYear = BokkyPooBahsDateTimeLibrary.getYear(lastBlockTime);\r\n        uint256 currentMonth = BokkyPooBahsDateTimeLibrary.getMonth(lastBlockTime);\r\n        uint256 currentDay = BokkyPooBahsDateTimeLibrary.getDay(lastBlockTime);\r\n        uint256 zeroDayTimeStamp = BokkyPooBahsDateTimeLibrary.timestampFromDateTime(currentYear, currentMonth, currentDay, 0, 0, 0);\r\n        return zeroDayTimeStamp;\r\n    }\r\n\r\n    function getCurrentTimeInDay() public view returns(uint256){\r\n        return BokkyPooBahsDateTimeLibrary.diffSeconds(getNewDayTimeStamp(), getLastBlockTimeStamp());\r\n    }\r\n\r\n}",
  "sourcePath": "C:\\Users\\cr100131\\apps\\test\\contracts\\MyDateLibrary.sol",
  "compiler": {
    "name": "solc",
    "version": "0.8.2+commit.661d1103.Emscripten.clang"
  },
  "schemaVersion": "3.3.4",
  "updatedAt": "2021-04-14T12:33:54.993Z",
  "devdoc": {
    "kind": "dev",
    "methods": {},
    "version": 1
  },
  "userdoc": {
    "kind": "user",
    "methods": {},
    "version": 1
  }
}