{
  "contractName": "Token",
  "abi": [
    {
      "inputs": [
        {
          "internalType": "uint256",
          "name": "_startTime",
          "type": "uint256"
        },
        {
          "internalType": "uint256",
          "name": "_endTime",
          "type": "uint256"
        }
      ],
      "stateMutability": "nonpayable",
      "type": "constructor"
    },
    {
      "anonymous": false,
      "inputs": [
        {
          "indexed": true,
          "internalType": "address",
          "name": "owner",
          "type": "address"
        },
        {
          "indexed": true,
          "internalType": "address",
          "name": "spender",
          "type": "address"
        },
        {
          "indexed": false,
          "internalType": "uint256",
          "name": "value",
          "type": "uint256"
        }
      ],
      "name": "Approval",
      "type": "event"
    },
    {
      "anonymous": false,
      "inputs": [],
      "name": "TokenCreated",
      "type": "event"
    },
    {
      "anonymous": false,
      "inputs": [
        {
          "indexed": true,
          "internalType": "address",
          "name": "from",
          "type": "address"
        },
        {
          "indexed": true,
          "internalType": "address",
          "name": "to",
          "type": "address"
        },
        {
          "indexed": false,
          "internalType": "uint256",
          "name": "value",
          "type": "uint256"
        }
      ],
      "name": "Transfer",
      "type": "event"
    },
    {
      "inputs": [
        {
          "internalType": "address",
          "name": "owner",
          "type": "address"
        },
        {
          "internalType": "address",
          "name": "spender",
          "type": "address"
        }
      ],
      "name": "allowance",
      "outputs": [
        {
          "internalType": "uint256",
          "name": "",
          "type": "uint256"
        }
      ],
      "stateMutability": "view",
      "type": "function"
    },
    {
      "inputs": [
        {
          "internalType": "address",
          "name": "spender",
          "type": "address"
        },
        {
          "internalType": "uint256",
          "name": "amount",
          "type": "uint256"
        }
      ],
      "name": "approve",
      "outputs": [
        {
          "internalType": "bool",
          "name": "",
          "type": "bool"
        }
      ],
      "stateMutability": "nonpayable",
      "type": "function"
    },
    {
      "inputs": [
        {
          "internalType": "address",
          "name": "account",
          "type": "address"
        }
      ],
      "name": "balanceOf",
      "outputs": [
        {
          "internalType": "uint256",
          "name": "",
          "type": "uint256"
        }
      ],
      "stateMutability": "view",
      "type": "function"
    },
    {
      "inputs": [],
      "name": "decimals",
      "outputs": [
        {
          "internalType": "uint8",
          "name": "",
          "type": "uint8"
        }
      ],
      "stateMutability": "view",
      "type": "function"
    },
    {
      "inputs": [
        {
          "internalType": "address",
          "name": "spender",
          "type": "address"
        },
        {
          "internalType": "uint256",
          "name": "subtractedValue",
          "type": "uint256"
        }
      ],
      "name": "decreaseAllowance",
      "outputs": [
        {
          "internalType": "bool",
          "name": "",
          "type": "bool"
        }
      ],
      "stateMutability": "nonpayable",
      "type": "function"
    },
    {
      "inputs": [],
      "name": "endTime",
      "outputs": [
        {
          "internalType": "uint128",
          "name": "",
          "type": "uint128"
        }
      ],
      "stateMutability": "view",
      "type": "function"
    },
    {
      "inputs": [
        {
          "internalType": "address",
          "name": "spender",
          "type": "address"
        },
        {
          "internalType": "uint256",
          "name": "addedValue",
          "type": "uint256"
        }
      ],
      "name": "increaseAllowance",
      "outputs": [
        {
          "internalType": "bool",
          "name": "",
          "type": "bool"
        }
      ],
      "stateMutability": "nonpayable",
      "type": "function"
    },
    {
      "inputs": [],
      "name": "name",
      "outputs": [
        {
          "internalType": "string",
          "name": "",
          "type": "string"
        }
      ],
      "stateMutability": "view",
      "type": "function"
    },
    {
      "inputs": [],
      "name": "startTime",
      "outputs": [
        {
          "internalType": "uint128",
          "name": "",
          "type": "uint128"
        }
      ],
      "stateMutability": "view",
      "type": "function"
    },
    {
      "inputs": [],
      "name": "symbol",
      "outputs": [
        {
          "internalType": "string",
          "name": "",
          "type": "string"
        }
      ],
      "stateMutability": "view",
      "type": "function"
    },
    {
      "inputs": [],
      "name": "totalSupply",
      "outputs": [
        {
          "internalType": "uint256",
          "name": "",
          "type": "uint256"
        }
      ],
      "stateMutability": "view",
      "type": "function"
    },
    {
      "inputs": [
        {
          "internalType": "address",
          "name": "sender",
          "type": "address"
        },
        {
          "internalType": "address",
          "name": "recipient",
          "type": "address"
        },
        {
          "internalType": "uint256",
          "name": "amount",
          "type": "uint256"
        }
      ],
      "name": "transferFrom",
      "outputs": [
        {
          "internalType": "bool",
          "name": "",
          "type": "bool"
        }
      ],
      "stateMutability": "nonpayable",
      "type": "function"
    },
    {
      "inputs": [
        {
          "internalType": "address",
          "name": "recipient",
          "type": "address"
        },
        {
          "internalType": "uint256",
          "name": "amount",
          "type": "uint256"
        }
      ],
      "name": "transfer",
      "outputs": [
        {
          "internalType": "bool",
          "name": "",
          "type": "bool"
        }
      ],
      "stateMutability": "nonpayable",
      "type": "function"
    }
  ],
  "bytecode": "0x60806040523480156200001157600080fd5b5060405162001e6238038062001e628339818101604052810190620000379190620003ec565b6040518060400160405280600481526020017f74657374000000000000000000000000000000000000000000000000000000008152506040518060400160405280600381526020017f54535400000000000000000000000000000000000000000000000000000000008152508160039080519060200190620000bb92919062000325565b508060049080519060200190620000d492919062000325565b5050506000610e1090508083620000ec919062000512565b600560006101000a8154816fffffffffffffffffffffffffffffffff02191690836fffffffffffffffffffffffffffffffff160217905550808262000132919062000512565b600560106101000a8154816fffffffffffffffffffffffffffffffff02191690836fffffffffffffffffffffffffffffffff160217905550620001863369d3c21bcecceda1000000620001bb60201b60201c565b7fef908395708fcdbb106d78fe45f0815442a05ae9dc6e6c0582ad9577974f693960405160405180910390a150505062000654565b600073ffffffffffffffffffffffffffffffffffffffff168273ffffffffffffffffffffffffffffffffffffffff1614156200022e576040517f08c379a0000000000000000000000000000000000000000000000000000000008152600401620002259062000465565b60405180910390fd5b62000242600083836200032060201b60201c565b8060026000828254620002569190620004b5565b92505081905550806000808473ffffffffffffffffffffffffffffffffffffffff1673ffffffffffffffffffffffffffffffffffffffff1681526020019081526020016000206000828254620002ad9190620004b5565b925050819055508173ffffffffffffffffffffffffffffffffffffffff16600073ffffffffffffffffffffffffffffffffffffffff167fddf252ad1be2c89b69c2b068fc378daa952ba7f163c4a11628f55a4df523b3ef8360405162000314919062000487565b60405180910390a35050565b505050565b82805462000333906200057d565b90600052602060002090601f016020900481019282620003575760008555620003a3565b82601f106200037257805160ff1916838001178555620003a3565b82800160010185558215620003a3579182015b82811115620003a257825182559160200191906001019062000385565b5b509050620003b29190620003b6565b5090565b5b80821115620003d1576000816000905550600101620003b7565b5090565b600081519050620003e6816200063a565b92915050565b600080604083850312156200040057600080fd5b60006200041085828601620003d5565b92505060206200042385828601620003d5565b9150509250929050565b60006200043c601f83620004a4565b9150620004498262000611565b602082019050919050565b6200045f8162000573565b82525050565b6000602082019050818103600083015262000480816200042d565b9050919050565b60006020820190506200049e600083018462000454565b92915050565b600082825260208201905092915050565b6000620004c28262000573565b9150620004cf8362000573565b9250827fffffffffffffffffffffffffffffffffffffffffffffffffffffffffffffffff03821115620005075762000506620005b3565b5b828201905092915050565b60006200051f8262000573565b91506200052c8362000573565b9250817fffffffffffffffffffffffffffffffffffffffffffffffffffffffffffffffff0483118215151615620005685762000567620005b3565b5b828202905092915050565b6000819050919050565b600060028204905060018216806200059657607f821691505b60208210811415620005ad57620005ac620005e2565b5b50919050565b7f4e487b7100000000000000000000000000000000000000000000000000000000600052601160045260246000fd5b7f4e487b7100000000000000000000000000000000000000000000000000000000600052602260045260246000fd5b7f45524332303a206d696e7420746f20746865207a65726f206164647265737300600082015250565b620006458162000573565b81146200065157600080fd5b50565b6117fe80620006646000396000f3fe608060405234801561001057600080fd5b50600436106100cf5760003560e01c8063395093511161008c57806395d89b411161006657806395d89b411461022a578063a457c2d714610248578063a9059cbb14610278578063dd62ed3e146102a8576100cf565b806339509351146101ac57806370a08231146101dc57806378e979251461020c576100cf565b806306fdde03146100d4578063095ea7b3146100f257806318160ddd1461012257806323b872dd14610140578063313ce567146101705780633197cbb61461018e575b600080fd5b6100dc6102d8565b6040516100e99190611155565b60405180910390f35b61010c60048036038101906101079190610f25565b61036a565b604051610119919061113a565b60405180910390f35b61012a610388565b60405161013791906112b2565b60405180910390f35b61015a60048036038101906101559190610ed6565b610392565b604051610167919061113a565b60405180910390f35b610178610493565b60405161018591906112cd565b60405180910390f35b61019661049c565b6040516101a39190611297565b60405180910390f35b6101c660048036038101906101c19190610f25565b6104be565b6040516101d3919061113a565b60405180910390f35b6101f660048036038101906101f19190610e71565b61056a565b60405161020391906112b2565b60405180910390f35b6102146105b2565b6040516102219190611297565b60405180910390f35b6102326105d4565b60405161023f9190611155565b60405180910390f35b610262600480360381019061025d9190610f25565b610666565b60405161026f919061113a565b60405180910390f35b610292600480360381019061028d9190610f25565b61075a565b60405161029f919061113a565b60405180910390f35b6102c260048036038101906102bd9190610e9a565b610954565b6040516102cf91906112b2565b60405180910390f35b6060600380546102e790611432565b80601f016020809104026020016040519081016040528092919081815260200182805461031390611432565b80156103605780601f1061033557610100808354040283529160200191610360565b820191906000526020600020905b81548152906001019060200180831161034357829003601f168201915b5050505050905090565b600061037e6103776109db565b84846109e3565b6001905092915050565b6000600254905090565b600061039f848484610bae565b6000600160008673ffffffffffffffffffffffffffffffffffffffff1673ffffffffffffffffffffffffffffffffffffffff16815260200190815260200160002060006103ea6109db565b73ffffffffffffffffffffffffffffffffffffffff1673ffffffffffffffffffffffffffffffffffffffff1681526020019081526020016000205490508281101561046a576040517f08c379a0000000000000000000000000000000000000000000000000000000008152600401610461906111d7565b60405180910390fd5b610487856104766109db565b8584610482919061135a565b6109e3565b60019150509392505050565b60006012905090565b600560109054906101000a90046fffffffffffffffffffffffffffffffff1681565b60006105606104cb6109db565b8484600160006104d96109db565b73ffffffffffffffffffffffffffffffffffffffff1673ffffffffffffffffffffffffffffffffffffffff16815260200190815260200160002060008873ffffffffffffffffffffffffffffffffffffffff1673ffffffffffffffffffffffffffffffffffffffff1681526020019081526020016000205461055b9190611304565b6109e3565b6001905092915050565b60008060008373ffffffffffffffffffffffffffffffffffffffff1673ffffffffffffffffffffffffffffffffffffffff168152602001908152602001600020549050919050565b600560009054906101000a90046fffffffffffffffffffffffffffffffff1681565b6060600480546105e390611432565b80601f016020809104026020016040519081016040528092919081815260200182805461060f90611432565b801561065c5780601f106106315761010080835404028352916020019161065c565b820191906000526020600020905b81548152906001019060200180831161063f57829003601f168201915b5050505050905090565b600080600160006106756109db565b73ffffffffffffffffffffffffffffffffffffffff1673ffffffffffffffffffffffffffffffffffffffff16815260200190815260200160002060008573ffffffffffffffffffffffffffffffffffffffff1673ffffffffffffffffffffffffffffffffffffffff16815260200190815260200160002054905082811015610732576040517f08c379a000000000000000000000000000000000000000000000000000000000815260040161072990611277565b60405180910390fd5b61074f61073d6109db565b85858461074a919061135a565b6109e3565b600191505092915050565b6000600560009054906101000a90046fffffffffffffffffffffffffffffffff166fffffffffffffffffffffffffffffffff1673__MyDateLibrary_________________________6388ce35586040518163ffffffff1660e01b815260040160206040518083038186803b1580156107d157600080fd5b505af41580156107e5573d6000803e3d6000fd5b505050506040513d601f19601f820116820180604052508101906108099190610f61565b101561084a576040517f08c379a000000000000000000000000000000000000000000000000000000000815260040161084190611257565b60405180910390fd5b600560109054906101000a90046fffffffffffffffffffffffffffffffff166fffffffffffffffffffffffffffffffff1673__MyDateLibrary_________________________6388ce35586040518163ffffffff1660e01b815260040160206040518083038186803b1580156108bf57600080fd5b505af41580156108d3573d6000803e3d6000fd5b505050506040513d601f19601f820116820180604052508101906108f79190610f61565b1115610938576040517f08c379a000000000000000000000000000000000000000000000000000000000815260040161092f906111f7565b60405180910390fd5b61094a6109436109db565b8484610bae565b6001905092915050565b6000600160008473ffffffffffffffffffffffffffffffffffffffff1673ffffffffffffffffffffffffffffffffffffffff16815260200190815260200160002060008373ffffffffffffffffffffffffffffffffffffffff1673ffffffffffffffffffffffffffffffffffffffff16815260200190815260200160002054905092915050565b600033905090565b600073ffffffffffffffffffffffffffffffffffffffff168373ffffffffffffffffffffffffffffffffffffffff161415610a53576040517f08c379a0000000000000000000000000000000000000000000000000000000008152600401610a4a90611237565b60405180910390fd5b600073ffffffffffffffffffffffffffffffffffffffff168273ffffffffffffffffffffffffffffffffffffffff161415610ac3576040517f08c379a0000000000000000000000000000000000000000000000000000000008152600401610aba90611197565b60405180910390fd5b80600160008573ffffffffffffffffffffffffffffffffffffffff1673ffffffffffffffffffffffffffffffffffffffff16815260200190815260200160002060008473ffffffffffffffffffffffffffffffffffffffff1673ffffffffffffffffffffffffffffffffffffffff168152602001908152602001600020819055508173ffffffffffffffffffffffffffffffffffffffff168373ffffffffffffffffffffffffffffffffffffffff167f8c5be1e5ebec7d5bd14f71427d1e84f3dd0314c0f7b2291e5b200ac8c7c3b92583604051610ba191906112b2565b60405180910390a3505050565b600073ffffffffffffffffffffffffffffffffffffffff168373ffffffffffffffffffffffffffffffffffffffff161415610c1e576040517f08c379a0000000000000000000000000000000000000000000000000000000008152600401610c1590611217565b60405180910390fd5b600073ffffffffffffffffffffffffffffffffffffffff168273ffffffffffffffffffffffffffffffffffffffff161415610c8e576040517f08c379a0000000000000000000000000000000000000000000000000000000008152600401610c8590611177565b60405180910390fd5b610c99838383610e2d565b60008060008573ffffffffffffffffffffffffffffffffffffffff1673ffffffffffffffffffffffffffffffffffffffff16815260200190815260200160002054905081811015610d1f576040517f08c379a0000000000000000000000000000000000000000000000000000000008152600401610d16906111b7565b60405180910390fd5b8181610d2b919061135a565b6000808673ffffffffffffffffffffffffffffffffffffffff1673ffffffffffffffffffffffffffffffffffffffff16815260200190815260200160002081905550816000808573ffffffffffffffffffffffffffffffffffffffff1673ffffffffffffffffffffffffffffffffffffffff1681526020019081526020016000206000828254610dbb9190611304565b925050819055508273ffffffffffffffffffffffffffffffffffffffff168473ffffffffffffffffffffffffffffffffffffffff167fddf252ad1be2c89b69c2b068fc378daa952ba7f163c4a11628f55a4df523b3ef84604051610e1f91906112b2565b60405180910390a350505050565b505050565b600081359050610e418161179a565b92915050565b600081359050610e56816117b1565b92915050565b600081519050610e6b816117b1565b92915050565b600060208284031215610e8357600080fd5b6000610e9184828501610e32565b91505092915050565b60008060408385031215610ead57600080fd5b6000610ebb85828601610e32565b9250506020610ecc85828601610e32565b9150509250929050565b600080600060608486031215610eeb57600080fd5b6000610ef986828701610e32565b9350506020610f0a86828701610e32565b9250506040610f1b86828701610e47565b9150509250925092565b60008060408385031215610f3857600080fd5b6000610f4685828601610e32565b9250506020610f5785828601610e47565b9150509250929050565b600060208284031215610f7357600080fd5b6000610f8184828501610e5c565b91505092915050565b610f93816113a0565b82525050565b6000610fa4826112e8565b610fae81856112f3565b9350610fbe8185602086016113ff565b610fc7816114c2565b840191505092915050565b6000610fdf6023836112f3565b9150610fea826114d3565b604082019050919050565b60006110026022836112f3565b915061100d82611522565b604082019050919050565b60006110256026836112f3565b915061103082611571565b604082019050919050565b60006110486028836112f3565b9150611053826115c0565b604082019050919050565b600061106b6025836112f3565b91506110768261160f565b604082019050919050565b600061108e6025836112f3565b91506110998261165e565b604082019050919050565b60006110b16024836112f3565b91506110bc826116ad565b604082019050919050565b60006110d46026836112f3565b91506110df826116fc565b604082019050919050565b60006110f76025836112f3565b91506111028261174b565b604082019050919050565b611116816113ac565b82525050565b611125816113e8565b82525050565b611134816113f2565b82525050565b600060208201905061114f6000830184610f8a565b92915050565b6000602082019050818103600083015261116f8184610f99565b905092915050565b6000602082019050818103600083015261119081610fd2565b9050919050565b600060208201905081810360008301526111b081610ff5565b9050919050565b600060208201905081810360008301526111d081611018565b9050919050565b600060208201905081810360008301526111f08161103b565b9050919050565b600060208201905081810360008301526112108161105e565b9050919050565b6000602082019050818103600083015261123081611081565b9050919050565b60006020820190508181036000830152611250816110a4565b9050919050565b60006020820190508181036000830152611270816110c7565b9050919050565b60006020820190508181036000830152611290816110ea565b9050919050565b60006020820190506112ac600083018461110d565b92915050565b60006020820190506112c7600083018461111c565b92915050565b60006020820190506112e2600083018461112b565b92915050565b600081519050919050565b600082825260208201905092915050565b600061130f826113e8565b915061131a836113e8565b9250827fffffffffffffffffffffffffffffffffffffffffffffffffffffffffffffffff0382111561134f5761134e611464565b5b828201905092915050565b6000611365826113e8565b9150611370836113e8565b92508282101561138357611382611464565b5b828203905092915050565b6000611399826113c8565b9050919050565b60008115159050919050565b60006fffffffffffffffffffffffffffffffff82169050919050565b600073ffffffffffffffffffffffffffffffffffffffff82169050919050565b6000819050919050565b600060ff82169050919050565b60005b8381101561141d578082015181840152602081019050611402565b8381111561142c576000848401525b50505050565b6000600282049050600182168061144a57607f821691505b6020821081141561145e5761145d611493565b5b50919050565b7f4e487b7100000000000000000000000000000000000000000000000000000000600052601160045260246000fd5b7f4e487b7100000000000000000000000000000000000000000000000000000000600052602260045260246000fd5b6000601f19601f8301169050919050565b7f45524332303a207472616e7366657220746f20746865207a65726f206164647260008201527f6573730000000000000000000000000000000000000000000000000000000000602082015250565b7f45524332303a20617070726f766520746f20746865207a65726f20616464726560008201527f7373000000000000000000000000000000000000000000000000000000000000602082015250565b7f45524332303a207472616e7366657220616d6f756e742065786365656473206260008201527f616c616e63650000000000000000000000000000000000000000000000000000602082015250565b7f45524332303a207472616e7366657220616d6f756e742065786365656473206160008201527f6c6c6f77616e6365000000000000000000000000000000000000000000000000602082015250565b7f546869732066756e6374696f6e2069732072657374726963746564206166746560008201527f722035504d000000000000000000000000000000000000000000000000000000602082015250565b7f45524332303a207472616e736665722066726f6d20746865207a65726f20616460008201527f6472657373000000000000000000000000000000000000000000000000000000602082015250565b7f45524332303a20617070726f76652066726f6d20746865207a65726f2061646460008201527f7265737300000000000000000000000000000000000000000000000000000000602082015250565b7f546869732066756e6374696f6e2069732072657374726963746564206265666f60008201527f72652037414d0000000000000000000000000000000000000000000000000000602082015250565b7f45524332303a2064656372656173656420616c6c6f77616e63652062656c6f7760008201527f207a65726f000000000000000000000000000000000000000000000000000000602082015250565b6117a38161138e565b81146117ae57600080fd5b50565b6117ba816113e8565b81146117c557600080fd5b5056fea2646970667358221220c22510566d1f9c974d96246a74486a44e2fb7a2fd83a09d9856759bae4b08bc664736f6c63430008020033",
  "immutableReferences": {},
  "source": "// SPDX-License-Identifier: MIT\r\npragma solidity >=0.4.22 <0.9.0;\r\n\r\nimport \"../node_modules/@openzeppelin/contracts/token/ERC20/ERC20.sol\";\r\nimport \"./MyDateLibrary.sol\";\r\n\r\ncontract Token is ERC20{\r\n    uint128 public startTime;\r\n    uint128 public endTime;\r\n\r\n\r\n    modifier TimeRestricted() {\r\n        require(MyDateLibrary.getCurrentTimeInDay() >= uint256(startTime), \"This function is restricted before 7AM\");\r\n        require(MyDateLibrary.getCurrentTimeInDay() <= uint256(endTime), \"This function is restricted after 5PM\");\r\n        _;\r\n    }\r\n\r\n    event TokenCreated();\r\n\r\n\r\n    constructor(uint256 _startTime, uint256 _endTime) ERC20(\"test\", \"TST\"){\r\n        uint256 toSeconds = 3600;\r\n        startTime = uint128(_startTime * toSeconds); //start time at 7AM\r\n        endTime = uint128(_endTime * toSeconds); //end time at 5 PM\r\n        _mint(msg.sender, 1000000*(10**18));\r\n        emit TokenCreated();\r\n    }\r\n \r\n    // function mint(uint256 amount) external payable {\r\n    //     _mint(msg.sender, amount);\r\n    // }\r\n\r\n\r\n    function transfer(address recipient, uint256 amount) public virtual override TimeRestricted returns (bool) {\r\n        _transfer(_msgSender(), recipient, amount);\r\n        return true;\r\n    }\r\n\r\n}",
  "sourcePath": "C:/Users/cr100131/apps/test/contracts/Token.sol",
  "compiler": {
    "name": "solc",
    "version": "0.8.2+commit.661d1103.Emscripten.clang"
  },
  "schemaVersion": "3.3.4",
  "updatedAt": "2021-04-14T12:33:55.021Z",
  "devdoc": {
    "kind": "dev",
    "methods": {
      "allowance(address,address)": {
        "details": "See {IERC20-allowance}."
      },
      "approve(address,uint256)": {
        "details": "See {IERC20-approve}. Requirements: - `spender` cannot be the zero address."
      },
      "balanceOf(address)": {
        "details": "See {IERC20-balanceOf}."
      },
      "decimals()": {
        "details": "Returns the number of decimals used to get its user representation. For example, if `decimals` equals `2`, a balance of `505` tokens should be displayed to a user as `5,05` (`505 / 10 ** 2`). Tokens usually opt for a value of 18, imitating the relationship between Ether and Wei. This is the value {ERC20} uses, unless this function is overloaded; NOTE: This information is only used for _display_ purposes: it in no way affects any of the arithmetic of the contract, including {IERC20-balanceOf} and {IERC20-transfer}."
      },
      "decreaseAllowance(address,uint256)": {
        "details": "Atomically decreases the allowance granted to `spender` by the caller. This is an alternative to {approve} that can be used as a mitigation for problems described in {IERC20-approve}. Emits an {Approval} event indicating the updated allowance. Requirements: - `spender` cannot be the zero address. - `spender` must have allowance for the caller of at least `subtractedValue`."
      },
      "increaseAllowance(address,uint256)": {
        "details": "Atomically increases the allowance granted to `spender` by the caller. This is an alternative to {approve} that can be used as a mitigation for problems described in {IERC20-approve}. Emits an {Approval} event indicating the updated allowance. Requirements: - `spender` cannot be the zero address."
      },
      "name()": {
        "details": "Returns the name of the token."
      },
      "symbol()": {
        "details": "Returns the symbol of the token, usually a shorter version of the name."
      },
      "totalSupply()": {
        "details": "See {IERC20-totalSupply}."
      },
      "transfer(address,uint256)": {
        "details": "See {IERC20-transfer}. Requirements: - `recipient` cannot be the zero address. - the caller must have a balance of at least `amount`."
      },
      "transferFrom(address,address,uint256)": {
        "details": "See {IERC20-transferFrom}. Emits an {Approval} event indicating the updated allowance. This is not required by the EIP. See the note at the beginning of {ERC20}. Requirements: - `sender` and `recipient` cannot be the zero address. - `sender` must have a balance of at least `amount`. - the caller must have allowance for ``sender``'s tokens of at least `amount`."
      }
    },
    "version": 1
  },
  "userdoc": {
    "kind": "user",
    "methods": {},
    "version": 1
  }
}